{
  "contractName": "ContributionFactory",
  "abi": [
    {
      "inputs": [
        {
          "internalType": "uint256",
          "name": "",
          "type": "uint256"
        }
      ],
      "name": "createdCooperatives",
      "outputs": [
        {
          "internalType": "address",
          "name": "",
          "type": "address"
        }
      ],
      "stateMutability": "view",
      "type": "function"
    },
    {
      "inputs": [
        {
          "internalType": "uint256",
          "name": "_maxUsers",
          "type": "uint256"
        },
        {
          "internalType": "uint256",
          "name": "_contributionInEther",
          "type": "uint256"
        },
        {
          "internalType": "uint256",
          "name": "_frequencyInDays",
          "type": "uint256"
        }
      ],
      "name": "createCooperative",
      "outputs": [
        {
          "internalType": "address",
          "name": "",
          "type": "address"
        }
      ],
      "stateMutability": "nonpayable",
      "type": "function"
    },
    {
      "inputs": [],
      "name": "getAllContributions",
      "outputs": [
        {
          "internalType": "address[]",
          "name": "",
          "type": "address[]"
        }
      ],
      "stateMutability": "view",
      "type": "function"
    }
  ],
  "bytecode": "0x608060405234801561001057600080fd5b506133c2806100206000396000f3fe60806040523480156200001157600080fd5b5060043610620000465760003560e01c806329d94365146200004b57806336b99c18146200008157806337f3061d14620000b7575b600080fd5b62000069600480360381019062000063919062000325565b620000d9565b604051620000789190620003c6565b60405180910390f35b6200009f6004803603810190620000999190620003e3565b62000207565b604051620000ae9190620003c6565b60405180910390f35b620000c162000247565b604051620000d09190620004e3565b60405180910390f35b600080848484604051620000ed90620002d7565b620000fb9392919062000518565b604051809103906000f08015801562000118573d6000803e3d6000fd5b5090506000819080600181540180825580915050600190039060005260206000200160009091909190916101000a81548173ffffffffffffffffffffffffffffffffffffffff021916908373ffffffffffffffffffffffffffffffffffffffff16021790555080600160003373ffffffffffffffffffffffffffffffffffffffff1673ffffffffffffffffffffffffffffffffffffffff16815260200190815260200160002060006101000a81548173ffffffffffffffffffffffffffffffffffffffff021916908373ffffffffffffffffffffffffffffffffffffffff160217905550809150509392505050565b600081815481106200021857600080fd5b906000526020600020016000915054906101000a900473ffffffffffffffffffffffffffffffffffffffff1681565b60606000805480602002602001604051908101604052809291908181526020018280548015620002cd57602002820191906000526020600020905b8160009054906101000a900473ffffffffffffffffffffffffffffffffffffffff1673ffffffffffffffffffffffffffffffffffffffff168152602001906001019080831162000282575b5050505050905090565b612e37806200055683390190565b600080fd5b6000819050919050565b620002ff81620002ea565b81146200030b57600080fd5b50565b6000813590506200031f81620002f4565b92915050565b600080600060608486031215620003415762000340620002e5565b5b600062000351868287016200030e565b935050602062000364868287016200030e565b925050604062000377868287016200030e565b9150509250925092565b600073ffffffffffffffffffffffffffffffffffffffff82169050919050565b6000620003ae8262000381565b9050919050565b620003c081620003a1565b82525050565b6000602082019050620003dd6000830184620003b5565b92915050565b600060208284031215620003fc57620003fb620002e5565b5b60006200040c848285016200030e565b91505092915050565b600081519050919050565b600082825260208201905092915050565b6000819050602082019050919050565b6200044c81620003a1565b82525050565b600062000460838362000441565b60208301905092915050565b6000602082019050919050565b6000620004868262000415565b62000492818562000420565b93506200049f8362000431565b8060005b83811015620004d6578151620004ba888262000452565b9750620004c7836200046c565b925050600181019050620004a3565b5085935050505092915050565b60006020820190508181036000830152620004ff818462000479565b905092915050565b6200051281620002ea565b82525050565b60006060820190506200052f600083018662000507565b6200053e602083018562000507565b6200054d604083018462000507565b94935050505056fe60806040523480156200001157600080fd5b5060405162002e3738038062002e378339818101604052810190620000379190620002e3565b60038310156200007e576040517f08c379a00000000000000000000000000000000000000000000000000000000081526004016200007590620003c6565b60405180910390fd5b6007811015620000c5576040517f08c379a0000000000000000000000000000000000000000000000000000000008152600401620000bc906200045e565b60405180910390fd5b600082116200010b576040517f08c379a00000000000000000000000000000000000000000000000000000000081526004016200010290620004f6565b60405180910390fd5b8260048190555080600781905550670de0b6b3a7640000826200012f919062000547565b60058190555060018081905550600160088190555032600360006101000a81548173ffffffffffffffffffffffffffffffffffffffff021916908373ffffffffffffffffffffffffffffffffffffffff1602179055506002329080600181540180825580915050600190039060005260206000200160009091909190916101000a81548173ffffffffffffffffffffffffffffffffffffffff021916908373ffffffffffffffffffffffffffffffffffffffff1602179055504260068190555060008060006101000a81548160ff02191690836002811115620002175762000216620005a8565b5b021790555030600b60003273ffffffffffffffffffffffffffffffffffffffff1673ffffffffffffffffffffffffffffffffffffffff16815260200190815260200160002060006101000a81548173ffffffffffffffffffffffffffffffffffffffff021916908373ffffffffffffffffffffffffffffffffffffffff160217905550505050620005d7565b600080fd5b6000819050919050565b620002bd81620002a8565b8114620002c957600080fd5b50565b600081519050620002dd81620002b2565b92915050565b600080600060608486031215620002ff57620002fe620002a3565b5b60006200030f86828701620002cc565b93505060206200032286828701620002cc565b92505060406200033586828701620002cc565b9150509250925092565b600082825260208201905092915050565b7f546865206d6178696d756d206e756d626572206f6620757365727320616c6c6f60008201527f7765642069732033000000000000000000000000000000000000000000000000602082015250565b6000620003ae6028836200033f565b9150620003bb8262000350565b604082019050919050565b60006020820190508181036000830152620003e1816200039f565b9050919050565b7f546865206d696e696d756d206672657175656e637920616c6c6f77656420697360008201527f2037206461797300000000000000000000000000000000000000000000000000602082015250565b6000620004466027836200033f565b91506200045382620003e8565b604082019050919050565b60006020820190508181036000830152620004798162000437565b9050919050565b7f596f752063616e6e6f7420736574207a65726f20617320746865206d696e696d60008201527f756d20636f6e747269627574696f6e0000000000000000000000000000000000602082015250565b6000620004de602f836200033f565b9150620004eb8262000480565b604082019050919050565b600060208201905081810360008301526200051181620004cf565b9050919050565b7f4e487b7100000000000000000000000000000000000000000000000000000000600052601160045260246000fd5b60006200055482620002a8565b91506200056183620002a8565b9250817fffffffffffffffffffffffffffffffffffffffffffffffffffffffffffffffff04831182151516156200059d576200059c62000518565b5b828202905092915050565b7f4e487b7100000000000000000000000000000000000000000000000000000000600052602160045260246000fd5b61285080620005e76000396000f3fe6080604052600436106101025760003560e01c80637ef8513a11610095578063c429875211610064578063c429875214610323578063d0e30db014610360578063e1b0e8021461036a578063f0cd594514610395578063f1f8d7da146103d257610109565b80637ef8513a146102615780638a19c8bc146102a25780638da5cb5b146102cd578063b69a4962146102f857610109565b8063200d2ed2116100d1578063200d2ed2146101b7578063365b98b2146101e25780634e71d92d1461021f5780635fa0b65f1461023657610109565b806307973ccf1461010b5780630b97bc861461013657806312065fe014610161578063154876771461018c57610109565b3661010957005b005b34801561011757600080fd5b5061012061040f565b60405161012d9190611b7f565b60405180910390f35b34801561014257600080fd5b5061014b610415565b6040516101589190611b7f565b60405180910390f35b34801561016d57600080fd5b5061017661041b565b6040516101839190611b7f565b60405180910390f35b34801561019857600080fd5b506101a1610423565b6040516101ae9190611bb5565b60405180910390f35b3480156101c357600080fd5b506101cc610633565b6040516101d99190611c47565b60405180910390f35b3480156101ee57600080fd5b5061020960048036038101906102049190611c93565b610644565b6040516102169190611d01565b60405180910390f35b34801561022b57600080fd5b50610234610683565b005b34801561024257600080fd5b5061024b610cc3565b6040516102589190611b7f565b60405180910390f35b34801561026d57600080fd5b5061028860048036038101906102839190611d48565b610cc9565b604051610299959493929190611dbd565b60405180910390f35b3480156102ae57600080fd5b506102b7610d26565b6040516102c49190611b7f565b60405180910390f35b3480156102d957600080fd5b506102e2610d2c565b6040516102ef9190611d01565b60405180910390f35b34801561030457600080fd5b5061030d610d52565b60405161031a9190611b7f565b60405180910390f35b34801561032f57600080fd5b5061034a60048036038101906103459190611d48565b610d58565b6040516103579190611d01565b60405180910390f35b6103686112de565b005b34801561037657600080fd5b5061037f6117f9565b60405161038c9190611b7f565b60405180910390f35b3480156103a157600080fd5b506103bc60048036038101906103b79190611d48565b6117ff565b6040516103c99190611d01565b60405180910390f35b3480156103de57600080fd5b506103f960048036038101906103f49190611d48565b611832565b6040516104069190611d01565b60405180910390f35b60015481565b60095481565b600047905090565b60008073ffffffffffffffffffffffffffffffffffffffff16600b60003373ffffffffffffffffffffffffffffffffffffffff1673ffffffffffffffffffffffffffffffffffffffff16815260200190815260200160002060009054906101000a900473ffffffffffffffffffffffffffffffffffffffff1673ffffffffffffffffffffffffffffffffffffffff1614156104f3576040517f08c379a00000000000000000000000000000000000000000000000000000000081526004016104ea90611e93565b60405180910390fd5b6000600a60003373ffffffffffffffffffffffffffffffffffffffff1673ffffffffffffffffffffffffffffffffffffffff1681526020019081526020016000206040518060a0016040529081600082015481526020016001820160009054906101000a900460ff16151515158152602001600282015481526020016003820160009054906101000a900460ff161515151581526020016003820160019054906101000a900460ff1660018111156105ae576105ad611bd0565b5b60018111156105c0576105bf611bd0565b5b81525050905060001515816060015115151480156106065750600060018111156105ed576105ec611bd0565b5b8160800151600181111561060457610603611bd0565b5b145b801561062d5750600554600160045461061f9190611ee2565b6106299190611f16565b4710155b91505090565b60008054906101000a900460ff1681565b6002818154811061065457600080fd5b906000526020600020016000915054906101000a900473ffffffffffffffffffffffffffffffffffffffff1681565b600073ffffffffffffffffffffffffffffffffffffffff16600b60003373ffffffffffffffffffffffffffffffffffffffff1673ffffffffffffffffffffffffffffffffffffffff16815260200190815260200160002060009054906101000a900473ffffffffffffffffffffffffffffffffffffffff1673ffffffffffffffffffffffffffffffffffffffff161415610752576040517f08c379a000000000000000000000000000000000000000000000000000000000815260040161074990611e93565b60405180910390fd5b6001600281111561076657610765611bd0565b5b60008054906101000a900460ff16600281111561078657610785611bd0565b5b146107c6576040517f08c379a00000000000000000000000000000000000000000000000000000000081526004016107bd90611fe2565b60405180910390fd5b6000600a60003373ffffffffffffffffffffffffffffffffffffffff1673ffffffffffffffffffffffffffffffffffffffff1681526020019081526020016000206040518060a0016040529081600082015481526020016001820160009054906101000a900460ff16151515158152602001600282015481526020016003820160009054906101000a900460ff161515151581526020016003820160019054906101000a900460ff16600181111561088157610880611bd0565b5b600181111561089357610892611bd0565b5b815250509050600060018111156108ad576108ac611bd0565b5b816080015160018111156108c4576108c3611bd0565b5b14610904576040517f08c379a00000000000000000000000000000000000000000000000000000000081526004016108fb90612074565b60405180910390fd5b60001515816060015115151461094f576040517f08c379a000000000000000000000000000000000000000000000000000000000815260040161094690612106565b60405180910390fd5b60055460016004546109619190611ee2565b61096b9190611f16565b4710156109ad576040517f08c379a00000000000000000000000000000000000000000000000000000000081526004016109a490612198565b60405180910390fd5b600060055460016004546109c19190611ee2565b6109cb9190611f16565b90503373ffffffffffffffffffffffffffffffffffffffff166108fc829081150290604051600060405180830381858888f19350505050158015610a13573d6000803e3d6000fd5b506000600a60003373ffffffffffffffffffffffffffffffffffffffff1673ffffffffffffffffffffffffffffffffffffffff168152602001908152602001600020905060018160030160006101000a81548160ff021916908315150217905550600160086000828254610a8791906121b8565b9250508190555060005b600154811015610c1857600060028281548110610ab157610ab061220e565b5b9060005260206000200160009054906101000a900473ffffffffffffffffffffffffffffffffffffffff1690506000600a60008373ffffffffffffffffffffffffffffffffffffffff1673ffffffffffffffffffffffffffffffffffffffff1681526020019081526020016000209050600183610b2e91906121b8565b6008541415610ba557610b4e6001600854610b4991906121b8565b611865565b816000018190555060018160010160006101000a81548160ff02191690831515021790555060008160030160016101000a81548160ff02191690836001811115610b9b57610b9a611bd0565b5b0217905550610c03565b610bb0600854611865565b816000018190555060008160010160006101000a81548160ff02191690831515021790555060018160030160016101000a81548160ff02191690836001811115610bfd57610bfc611bd0565b5b02179055505b50508080610c109061223d565b915050610a91565b506001546001600854610c2b9190611ee2565b1415610c5c5760026000806101000a81548160ff02191690836002811115610c5657610c55611bd0565b5b02179055505b60006001811115610c7057610c6f611bd0565b5b3373ffffffffffffffffffffffffffffffffffffffff167f5eab1271a1100f2ebc7382fc4c119edd3079053f42d02ce6d19d5308722649bf42604051610cb69190611b7f565b60405180910390a3505050565b60055481565b600a6020528060005260406000206000915090508060000154908060010160009054906101000a900460ff16908060020154908060030160009054906101000a900460ff16908060030160019054906101000a900460ff16905085565b60085481565b600360009054906101000a900473ffffffffffffffffffffffffffffffffffffffff1681565b60075481565b6000806002811115610d6d57610d6c611bd0565b5b60008054906101000a900460ff166002811115610d8d57610d8c611bd0565b5b1480610dc95750600280811115610da757610da6611bd0565b5b60008054906101000a900460ff166002811115610dc757610dc6611bd0565b5b145b610e08576040517f08c379a0000000000000000000000000000000000000000000000000000000008152600401610dff9061231e565b60405180910390fd5b3373ffffffffffffffffffffffffffffffffffffffff168273ffffffffffffffffffffffffffffffffffffffff161415610e77576040517f08c379a0000000000000000000000000000000000000000000000000000000008152600401610e6e9061238a565b60405180910390fd5b600073ffffffffffffffffffffffffffffffffffffffff16600b60003373ffffffffffffffffffffffffffffffffffffffff1673ffffffffffffffffffffffffffffffffffffffff16815260200190815260200160002060009054906101000a900473ffffffffffffffffffffffffffffffffffffffff1673ffffffffffffffffffffffffffffffffffffffff161415610f46576040517f08c379a0000000000000000000000000000000000000000000000000000000008152600401610f3d90612442565b60405180910390fd5b600073ffffffffffffffffffffffffffffffffffffffff16600c60003373ffffffffffffffffffffffffffffffffffffffff1673ffffffffffffffffffffffffffffffffffffffff16815260200190815260200160002060009054906101000a900473ffffffffffffffffffffffffffffffffffffffff1673ffffffffffffffffffffffffffffffffffffffff1614611014576040517f08c379a000000000000000000000000000000000000000000000000000000000815260040161100b906124d4565b60405180910390fd5b600073ffffffffffffffffffffffffffffffffffffffff16600b60008473ffffffffffffffffffffffffffffffffffffffff1673ffffffffffffffffffffffffffffffffffffffff16815260200190815260200160002060009054906101000a900473ffffffffffffffffffffffffffffffffffffffff1673ffffffffffffffffffffffffffffffffffffffff16146110e2576040517f08c379a00000000000000000000000000000000000000000000000000000000081526004016110d99061258c565b60405180910390fd5b33600b60008473ffffffffffffffffffffffffffffffffffffffff1673ffffffffffffffffffffffffffffffffffffffff16815260200190815260200160002060006101000a81548173ffffffffffffffffffffffffffffffffffffffff021916908373ffffffffffffffffffffffffffffffffffffffff16021790555081600c60003373ffffffffffffffffffffffffffffffffffffffff1673ffffffffffffffffffffffffffffffffffffffff16815260200190815260200160002060006101000a81548173ffffffffffffffffffffffffffffffffffffffff021916908373ffffffffffffffffffffffffffffffffffffffff1602179055506002829080600181540180825580915050600190039060005260206000200160009091909190916101000a81548173ffffffffffffffffffffffffffffffffffffffff021916908373ffffffffffffffffffffffffffffffffffffffff1602179055506001805461124f91906121b8565b60018190555060045460015414156112715742600981905550611270611897565b5b3373ffffffffffffffffffffffffffffffffffffffff168273ffffffffffffffffffffffffffffffffffffffff167f0c8f8aa5ff72e544d1fc13f5df82d1f5a24144dd0128bcb65885473543ab91b0426040516112ce9190611b7f565b60405180910390a3819050919050565b600073ffffffffffffffffffffffffffffffffffffffff16600b60003373ffffffffffffffffffffffffffffffffffffffff1673ffffffffffffffffffffffffffffffffffffffff16815260200190815260200160002060009054906101000a900473ffffffffffffffffffffffffffffffffffffffff1673ffffffffffffffffffffffffffffffffffffffff1614156113ad576040517f08c379a00000000000000000000000000000000000000000000000000000000081526004016113a490611e93565b60405180910390fd5b600160028111156113c1576113c0611bd0565b5b60008054906101000a900460ff1660028111156113e1576113e0611bd0565b5b14611421576040517f08c379a000000000000000000000000000000000000000000000000000000000815260040161141890611fe2565b60405180910390fd5b6000600a60003373ffffffffffffffffffffffffffffffffffffffff1673ffffffffffffffffffffffffffffffffffffffff1681526020019081526020016000206040518060a0016040529081600082015481526020016001820160009054906101000a900460ff16151515158152602001600282015481526020016003820160009054906101000a900460ff161515151581526020016003820160019054906101000a900460ff1660018111156114dc576114db611bd0565b5b60018111156114ee576114ed611bd0565b5b81525050905060018081111561150757611506611bd0565b5b8160800151600181111561151e5761151d611bd0565b5b1461155e576040517f08c379a00000000000000000000000000000000000000000000000000000000081526004016115559061261e565b60405180910390fd5b6005543410156115a3576040517f08c379a000000000000000000000000000000000000000000000000000000000815260040161159a906126b0565b60405180910390fd5b60001515600a60003373ffffffffffffffffffffffffffffffffffffffff1673ffffffffffffffffffffffffffffffffffffffff16815260200190815260200160002060010160009054906101000a900460ff16151514611639576040517f08c379a000000000000000000000000000000000000000000000000000000000815260040161163090612742565b60405180910390fd5b60011515600a60003373ffffffffffffffffffffffffffffffffffffffff1673ffffffffffffffffffffffffffffffffffffffff16815260200190815260200160002060010160009054906101000a900460ff16151514156116d0576040517f08c379a00000000000000000000000000000000000000000000000000000000081526004016116c7906127fa565b60405180910390fd5b6000600a60003373ffffffffffffffffffffffffffffffffffffffff1673ffffffffffffffffffffffffffffffffffffffff168152602001908152602001600020905060018160010160006101000a81548160ff02191690831515021790555060018081111561174357611742611bd0565b5b3373ffffffffffffffffffffffffffffffffffffffff167f5eab1271a1100f2ebc7382fc4c119edd3079053f42d02ce6d19d5308722649bf426040516117899190611b7f565b60405180910390a3506000600554346117a29190611ee2565b905060008111156117f5573373ffffffffffffffffffffffffffffffffffffffff166108fc829081150290604051600060405180830381858888f193505050501580156117f3573d6000803e3d6000fd5b505b5050565b60045481565b600c6020528060005260406000206000915054906101000a900473ffffffffffffffffffffffffffffffffffffffff1681565b600b6020528060005260406000206000915054906101000a900473ffffffffffffffffffffffffffffffffffffffff1681565b600062015180600754836118799190611f16565b6118839190611f16565b60065461189091906121b8565b9050919050565b600060028111156118ab576118aa611bd0565b5b60008054906101000a900460ff1660028111156118cb576118ca611bd0565b5b148061190757506002808111156118e5576118e4611bd0565b5b60008054906101000a900460ff16600281111561190557611904611bd0565b5b145b611946576040517f08c379a000000000000000000000000000000000000000000000000000000000815260040161193d9061231e565b60405180910390fd5b60005b600154811015611b09576000600282815481106119695761196861220e565b5b9060005260206000200160009054906101000a900473ffffffffffffffffffffffffffffffffffffffff16905060006040518060a00160405280600085146119bb576119b6600854611865565b6119d3565b6119d260016008546119cd91906121b8565b611865565b5b81526020016000151581526020016119f66001866119f191906121b8565b611b36565b815260200160001515815260200160008514611a13576001611a16565b60005b6001811115611a2857611a27611bd0565b5b815250905080600a60008473ffffffffffffffffffffffffffffffffffffffff1673ffffffffffffffffffffffffffffffffffffffff1681526020019081526020016000206000820151816000015560208201518160010160006101000a81548160ff0219169083151502179055506040820151816002015560608201518160030160006101000a81548160ff02191690831515021790555060808201518160030160016101000a81548160ff02191690836001811115611aec57611aeb611bd0565b5b021790555090505050508080611b019061223d565b915050611949565b5060016000806101000a81548160ff02191690836002811115611b2f57611b2e611bd0565b5b0217905550565b60006201518060075483611b4a9190611f16565b611b549190611f16565b42611b5f91906121b8565b9050919050565b6000819050919050565b611b7981611b66565b82525050565b6000602082019050611b946000830184611b70565b92915050565b60008115159050919050565b611baf81611b9a565b82525050565b6000602082019050611bca6000830184611ba6565b92915050565b7f4e487b7100000000000000000000000000000000000000000000000000000000600052602160045260246000fd5b60038110611c1057611c0f611bd0565b5b50565b6000819050611c2182611bff565b919050565b6000611c3182611c13565b9050919050565b611c4181611c26565b82525050565b6000602082019050611c5c6000830184611c38565b92915050565b600080fd5b611c7081611b66565b8114611c7b57600080fd5b50565b600081359050611c8d81611c67565b92915050565b600060208284031215611ca957611ca8611c62565b5b6000611cb784828501611c7e565b91505092915050565b600073ffffffffffffffffffffffffffffffffffffffff82169050919050565b6000611ceb82611cc0565b9050919050565b611cfb81611ce0565b82525050565b6000602082019050611d166000830184611cf2565b92915050565b611d2581611ce0565b8114611d3057600080fd5b50565b600081359050611d4281611d1c565b92915050565b600060208284031215611d5e57611d5d611c62565b5b6000611d6c84828501611d33565b91505092915050565b60028110611d8657611d85611bd0565b5b50565b6000819050611d9782611d75565b919050565b6000611da782611d89565b9050919050565b611db781611d9c565b82525050565b600060a082019050611dd26000830188611b70565b611ddf6020830187611ba6565b611dec6040830186611b70565b611df96060830185611ba6565b611e066080830184611dae565b9695505050505050565b600082825260208201905092915050565b7f546869732075736572206973206e6f742061206d656d626572206f662074686960008201527f7320636f6f706572617469766500000000000000000000000000000000000000602082015250565b6000611e7d602d83611e10565b9150611e8882611e21565b604082019050919050565b60006020820190508181036000830152611eac81611e70565b9050919050565b7f4e487b7100000000000000000000000000000000000000000000000000000000600052601160045260246000fd5b6000611eed82611b66565b9150611ef883611b66565b925082821015611f0b57611f0a611eb3565b5b828203905092915050565b6000611f2182611b66565b9150611f2c83611b66565b9250817fffffffffffffffffffffffffffffffffffffffffffffffffffffffffffffffff0483118215151615611f6557611f64611eb3565b5b828202905092915050565b7f5468697320636f6f706572617469766520686173206e6f74207965742062656560008201527f6e20737461727465642c20616464206d6f7265206d656d626572730000000000602082015250565b6000611fcc603b83611e10565b9150611fd782611f70565b604082019050919050565b60006020820190508181036000830152611ffb81611fbf565b9050919050565b7f4974206973206e6f7420796f3b7572207475726e20746f20636c61696d20796560008201527f742c20706c6561736520776169742061207768696c6500000000000000000000602082015250565b600061205e603683611e10565b915061206982612002565b604082019050919050565b6000602082019050818103600083015261208d81612051565b9050919050565b7f596f75206861766520616c726561647920636c61696d656420796f757220706f60008201527f6f6c000000000000000000000000000000000000000000000000000000000000602082015250565b60006120f0602283611e10565b91506120fb82612094565b604082019050919050565b6000602082019050818103600083015261211f816120e3565b9050919050565b7f506c6561736520486f6c64206f6e2074696c6c206d6f7265206465706f73697460008201527f7320617265206d61646500000000000000000000000000000000000000000000602082015250565b6000612182602a83611e10565b915061218d82612126565b604082019050919050565b600060208201905081810360008301526121b181612175565b9050919050565b60006121c382611b66565b91506121ce83611b66565b9250827fffffffffffffffffffffffffffffffffffffffffffffffffffffffffffffffff0382111561220357612202611eb3565b5b828201905092915050565b7f4e487b7100000000000000000000000000000000000000000000000000000000600052603260045260246000fd5b600061224882611b66565b91507fffffffffffffffffffffffffffffffffffffffffffffffffffffffffffffffff82141561227b5761227a611eb3565b5b600182019050919050565b7f5468697320636f6f706572617469766520616c7265616479207374617274656460008201527f2c205468697320616374696f6e206973206e6f7420616c6c6f77656420616e7960208201527f206d6f72652e0000000000000000000000000000000000000000000000000000604082015250565b6000612308604683611e10565b915061231382612286565b606082019050919050565b60006020820190508181036000830152612337816122fb565b9050919050565b7f596f752063616e6e6f7420696e7669746520796f757273656c66210000000000600082015250565b6000612374601b83611e10565b915061237f8261233e565b602082019050919050565b600060208201905081810360008301526123a381612367565b9050919050565b7f596f7520617265206e6f742061206d656d626572206f66207468697320636f6f60008201527f7065726174696f6e2c20706c65617365207265717569726520616e20696e766960208201527f74652066726f6d2061206d656d62657200000000000000000000000000000000604082015250565b600061242c605083611e10565b9150612437826123aa565b606082019050919050565b6000602082019050818103600083015261245b8161241f565b9050919050565b7f596f75206861766520696e766974656420616e6f74686572207573657220616c60008201527f7265616479000000000000000000000000000000000000000000000000000000602082015250565b60006124be602583611e10565b91506124c982612462565b604082019050919050565b600060208201905081810360008301526124ed816124b1565b9050919050565b7f5468697320757365722068617320616c7265616479206265656e20696e76697460008201527f656420627920616e6f74686572207573657220746f2074686520636f6f70657260208201527f6174697665000000000000000000000000000000000000000000000000000000604082015250565b6000612576604583611e10565b9150612581826124f4565b606082019050919050565b600060208201905081810360008301526125a581612569565b9050919050565b7f4974206973206e6f7420796f7572207475726e20746f206465706f736974207960008201527f65742c20706c6561736520776169742061207475726e00000000000000000000602082015250565b6000612608603683611e10565b9150612613826125ac565b604082019050919050565b60006020820190508181036000830152612637816125fb565b9050919050565b7f506c65617365206d616b65207375726520796f75206172652073656e64696e6760008201527f20746865206d696e696d756d2062616c616e6365000000000000000000000000602082015250565b600061269a603483611e10565b91506126a58261263e565b604082019050919050565b600060208201905081810360008301526126c98161268d565b9050919050565b7f596f752043616e6e6f74206d616b6520616e79206d6f7265207061796d656e7460008201527f7320666f72207468697320726f756e642e000000000000000000000000000000602082015250565b600061272c603183611e10565b9150612737826126d0565b604082019050919050565b6000602082019050818103600083015261275b8161271f565b9050919050565b7f596f752068617665206d616465206120636f6e747269627574696f6e20666f7260008201527f207468697320726f756e6420616c72656164792c20706c65617365207761697460208201527f2074696c6c20746865206e65787420726f756e64000000000000000000000000604082015250565b60006127e4605483611e10565b91506127ef82612762565b606082019050919050565b60006020820190508181036000830152612813816127d7565b905091905056fea2646970667358221220b8c69a98d8bf86de105bf3ce074591a327ec63e927b92e4738dc744e5d67d4b164736f6c634300080a0033a26469706673582212209d18b8e78776d8f07605581adf615d97d47fe27f53396dc6360fdae2fa0ba26664736f6c634300080a0033",
  "immutableReferences": {},
  "source": "/// @author Shuaibu Alexander\n/// @title A cooperative deployer contract, this contract helps us to deploy and keep track of several instances of the cooperative contract\n// SPDX-License-Identifier: GPL-3.0\npragma solidity ^0.8.3;\nimport \"./Cooperative.sol\";\n// import \"hardhat/console.sol\";\n\ncontract ContributionFactory{\n\n    address[] public createdCooperatives;\n    mapping(address => address) creatorToCooperative;\n\n    function createCooperative(\n        uint _maxUsers,\n        uint _contributionInEther,\n        uint _frequencyInDays\n    ) public returns(address){\n        address newCooperative = address(new Contribution(\n            _maxUsers, _contributionInEther, _frequencyInDays\n        ));\n        createdCooperatives.push(newCooperative);\n        creatorToCooperative[msg.sender] = newCooperative;\n        return newCooperative;\n    }\n\n    function getAllContributions() public view returns(address[] memory){\n        return createdCooperatives;\n    }\n}",
  "sourcePath": "/Users/xander/Documents/workstation/consensys/blockchain-developer-bootcamp-final-project/contracts/CooperativeFactory.sol",
  "compiler": {
    "name": "solc",
    "version": "0.8.10+commit.fc410830.Emscripten.clang"
  },
  "schemaVersion": "3.4.3",
  "updatedAt": "2021-11-27T21:54:33.019Z",
  "devdoc": {
    "kind": "dev",
    "methods": {},
    "version": 1
  },
  "userdoc": {
    "kind": "user",
    "methods": {},
    "version": 1
  }
}