{
  "contractName": "Cooperative",
  "abi": [
    {
      "inputs": [
        {
          "internalType": "uint256",
          "name": "_users",
          "type": "uint256"
        },
        {
          "internalType": "uint256",
          "name": "_contributionInEther",
          "type": "uint256"
        },
        {
          "internalType": "uint256",
          "name": "_frequencyInDays",
          "type": "uint256"
        }
      ],
      "stateMutability": "nonpayable",
      "type": "constructor"
    },
    {
      "anonymous": false,
      "inputs": [
        {
          "indexed": true,
          "internalType": "address",
          "name": "user",
          "type": "address"
        },
        {
          "indexed": true,
          "internalType": "enum Cooperative.TransactionType",
          "name": "actionType",
          "type": "uint8"
        },
        {
          "indexed": false,
          "internalType": "uint256",
          "name": "timeStamp",
          "type": "uint256"
        }
      ],
      "name": "LogTransaction",
      "type": "event"
    },
    {
      "anonymous": false,
      "inputs": [
        {
          "indexed": true,
          "internalType": "address",
          "name": "user",
          "type": "address"
        },
        {
          "indexed": true,
          "internalType": "address",
          "name": "addedBy",
          "type": "address"
        },
        {
          "indexed": false,
          "internalType": "uint256",
          "name": "timestamp",
          "type": "uint256"
        }
      ],
      "name": "UserAdded",
      "type": "event"
    },
    {
      "stateMutability": "payable",
      "type": "fallback"
    },
    {
      "inputs": [],
      "name": "contributionAmount",
      "outputs": [
        {
          "internalType": "uint256",
          "name": "",
          "type": "uint256"
        }
      ],
      "stateMutability": "view",
      "type": "function"
    },
    {
      "inputs": [],
      "name": "currentRound",
      "outputs": [
        {
          "internalType": "uint256",
          "name": "",
          "type": "uint256"
        }
      ],
      "stateMutability": "view",
      "type": "function"
    },
    {
      "inputs": [],
      "name": "frequencyInDays",
      "outputs": [
        {
          "internalType": "uint256",
          "name": "",
          "type": "uint256"
        }
      ],
      "stateMutability": "view",
      "type": "function"
    },
    {
      "inputs": [
        {
          "internalType": "address",
          "name": "",
          "type": "address"
        }
      ],
      "name": "invited",
      "outputs": [
        {
          "internalType": "address",
          "name": "",
          "type": "address"
        }
      ],
      "stateMutability": "view",
      "type": "function"
    },
    {
      "inputs": [
        {
          "internalType": "address",
          "name": "",
          "type": "address"
        }
      ],
      "name": "invitedBy",
      "outputs": [
        {
          "internalType": "address",
          "name": "",
          "type": "address"
        }
      ],
      "stateMutability": "view",
      "type": "function"
    },
    {
      "inputs": [],
      "name": "maxUsers",
      "outputs": [
        {
          "internalType": "uint256",
          "name": "",
          "type": "uint256"
        }
      ],
      "stateMutability": "view",
      "type": "function"
    },
    {
      "inputs": [],
      "name": "owner",
      "outputs": [
        {
          "internalType": "address",
          "name": "",
          "type": "address"
        }
      ],
      "stateMutability": "view",
      "type": "function"
    },
    {
      "inputs": [],
      "name": "startDate",
      "outputs": [
        {
          "internalType": "uint256",
          "name": "",
          "type": "uint256"
        }
      ],
      "stateMutability": "view",
      "type": "function"
    },
    {
      "inputs": [],
      "name": "status",
      "outputs": [
        {
          "internalType": "enum Cooperative.Status",
          "name": "",
          "type": "uint8"
        }
      ],
      "stateMutability": "view",
      "type": "function"
    },
    {
      "inputs": [],
      "name": "userCount",
      "outputs": [
        {
          "internalType": "uint256",
          "name": "",
          "type": "uint256"
        }
      ],
      "stateMutability": "view",
      "type": "function"
    },
    {
      "inputs": [
        {
          "internalType": "address",
          "name": "",
          "type": "address"
        }
      ],
      "name": "userSettings",
      "outputs": [
        {
          "internalType": "uint256",
          "name": "nextExpectedDepositDate",
          "type": "uint256"
        },
        {
          "internalType": "bool",
          "name": "paidForRound",
          "type": "bool"
        },
        {
          "internalType": "uint256",
          "name": "claimDueDate",
          "type": "uint256"
        },
        {
          "internalType": "bool",
          "name": "claimed",
          "type": "bool"
        },
        {
          "internalType": "enum Cooperative.Role",
          "name": "roundRole",
          "type": "uint8"
        }
      ],
      "stateMutability": "view",
      "type": "function"
    },
    {
      "inputs": [
        {
          "internalType": "uint256",
          "name": "",
          "type": "uint256"
        }
      ],
      "name": "users",
      "outputs": [
        {
          "internalType": "address",
          "name": "",
          "type": "address"
        }
      ],
      "stateMutability": "view",
      "type": "function"
    },
    {
      "stateMutability": "payable",
      "type": "receive"
    },
    {
      "inputs": [],
      "name": "getBalance",
      "outputs": [
        {
          "internalType": "uint256",
          "name": "",
          "type": "uint256"
        }
      ],
      "stateMutability": "view",
      "type": "function"
    },
    {
      "inputs": [
        {
          "internalType": "address",
          "name": "newUser",
          "type": "address"
        }
      ],
      "name": "inviteUser",
      "outputs": [
        {
          "internalType": "address",
          "name": "",
          "type": "address"
        }
      ],
      "stateMutability": "nonpayable",
      "type": "function"
    },
    {
      "inputs": [],
      "name": "claim",
      "outputs": [],
      "stateMutability": "nonpayable",
      "type": "function"
    },
    {
      "inputs": [],
      "name": "deposit",
      "outputs": [],
      "stateMutability": "payable",
      "type": "function"
    },
    {
      "inputs": [],
      "name": "canClaimPool",
      "outputs": [
        {
          "internalType": "bool",
          "name": "",
          "type": "bool"
        }
      ],
      "stateMutability": "view",
      "type": "function"
    }
  ],
  "bytecode": "0x60806040523480156200001157600080fd5b5060405162002dec38038062002dec8339818101604052810190620000379190620002ce565b60038310156200007e576040517f08c379a00000000000000000000000000000000000000000000000000000000081526004016200007590620003b1565b60405180910390fd5b6007811015620000c5576040517f08c379a0000000000000000000000000000000000000000000000000000000008152600401620000bc9062000449565b60405180910390fd5b600082116200010b576040517f08c379a00000000000000000000000000000000000000000000000000000000081526004016200010290620004e1565b60405180910390fd5b82600481905550806007819055508160058190555060018081905550600160088190555032600360006101000a81548173ffffffffffffffffffffffffffffffffffffffff021916908373ffffffffffffffffffffffffffffffffffffffff1602179055506002329080600181540180825580915050600190039060005260206000200160009091909190916101000a81548173ffffffffffffffffffffffffffffffffffffffff021916908373ffffffffffffffffffffffffffffffffffffffff1602179055504260068190555060008060006101000a81548160ff0219169083600281111562000202576200020162000503565b5b021790555030600b60003273ffffffffffffffffffffffffffffffffffffffff1673ffffffffffffffffffffffffffffffffffffffff16815260200190815260200160002060006101000a81548173ffffffffffffffffffffffffffffffffffffffff021916908373ffffffffffffffffffffffffffffffffffffffff16021790555050505062000532565b600080fd5b6000819050919050565b620002a88162000293565b8114620002b457600080fd5b50565b600081519050620002c8816200029d565b92915050565b600080600060608486031215620002ea57620002e96200028e565b5b6000620002fa86828701620002b7565b93505060206200030d86828701620002b7565b92505060406200032086828701620002b7565b9150509250925092565b600082825260208201905092915050565b7f546865206d6178696d756d206e756d626572206f6620757365727320616c6c6f60008201527f7765642069732033000000000000000000000000000000000000000000000000602082015250565b6000620003996028836200032a565b9150620003a6826200033b565b604082019050919050565b60006020820190508181036000830152620003cc816200038a565b9050919050565b7f546865206d696e696d756d206672657175656e637920616c6c6f77656420697360008201527f2037206461797300000000000000000000000000000000000000000000000000602082015250565b6000620004316027836200032a565b91506200043e82620003d3565b604082019050919050565b60006020820190508181036000830152620004648162000422565b9050919050565b7f596f752063616e6e6f7420736574207a65726f20617320746865206d696e696d60008201527f756d20636f6e747269627574696f6e0000000000000000000000000000000000602082015250565b6000620004c9602f836200032a565b9150620004d6826200046b565b604082019050919050565b60006020820190508181036000830152620004fc81620004ba565b9050919050565b7f4e487b7100000000000000000000000000000000000000000000000000000000600052602160045260246000fd5b6128aa80620005426000396000f3fe6080604052600436106101025760003560e01c80637ef8513a11610095578063c429875211610064578063c429875214610323578063d0e30db014610360578063e1b0e8021461036a578063f0cd594514610395578063f1f8d7da146103d257610109565b80637ef8513a146102615780638a19c8bc146102a25780638da5cb5b146102cd578063b69a4962146102f857610109565b8063200d2ed2116100d1578063200d2ed2146101b7578063365b98b2146101e25780634e71d92d1461021f5780635fa0b65f1461023657610109565b806307973ccf1461010b5780630b97bc861461013657806312065fe014610161578063154876771461018c57610109565b3661010957005b005b34801561011757600080fd5b5061012061040f565b60405161012d9190611bd9565b60405180910390f35b34801561014257600080fd5b5061014b610415565b6040516101589190611bd9565b60405180910390f35b34801561016d57600080fd5b5061017661041b565b6040516101839190611bd9565b60405180910390f35b34801561019857600080fd5b506101a1610423565b6040516101ae9190611c0f565b60405180910390f35b3480156101c357600080fd5b506101cc610633565b6040516101d99190611ca1565b60405180910390f35b3480156101ee57600080fd5b5061020960048036038101906102049190611ced565b610644565b6040516102169190611d5b565b60405180910390f35b34801561022b57600080fd5b50610234610683565b005b34801561024257600080fd5b5061024b610cc3565b6040516102589190611bd9565b60405180910390f35b34801561026d57600080fd5b5061028860048036038101906102839190611da2565b610cc9565b604051610299959493929190611e17565b60405180910390f35b3480156102ae57600080fd5b506102b7610d26565b6040516102c49190611bd9565b60405180910390f35b3480156102d957600080fd5b506102e2610d2c565b6040516102ef9190611d5b565b60405180910390f35b34801561030457600080fd5b5061030d610d52565b60405161031a9190611bd9565b60405180910390f35b34801561032f57600080fd5b5061034a60048036038101906103459190611da2565b610d58565b6040516103579190611d5b565b60405180910390f35b6103686112de565b005b34801561037657600080fd5b5061037f6117f9565b60405161038c9190611bd9565b60405180910390f35b3480156103a157600080fd5b506103bc60048036038101906103b79190611da2565b6117ff565b6040516103c99190611d5b565b60405180910390f35b3480156103de57600080fd5b506103f960048036038101906103f49190611da2565b611832565b6040516104069190611d5b565b60405180910390f35b60015481565b60095481565b600047905090565b60008073ffffffffffffffffffffffffffffffffffffffff16600b60003373ffffffffffffffffffffffffffffffffffffffff1673ffffffffffffffffffffffffffffffffffffffff16815260200190815260200160002060009054906101000a900473ffffffffffffffffffffffffffffffffffffffff1673ffffffffffffffffffffffffffffffffffffffff1614156104f3576040517f08c379a00000000000000000000000000000000000000000000000000000000081526004016104ea90611eed565b60405180910390fd5b6000600a60003373ffffffffffffffffffffffffffffffffffffffff1673ffffffffffffffffffffffffffffffffffffffff1681526020019081526020016000206040518060a0016040529081600082015481526020016001820160009054906101000a900460ff16151515158152602001600282015481526020016003820160009054906101000a900460ff161515151581526020016003820160019054906101000a900460ff1660018111156105ae576105ad611c2a565b5b60018111156105c0576105bf611c2a565b5b81525050905060001515816060015115151480156106065750600060018111156105ed576105ec611c2a565b5b8160800151600181111561060457610603611c2a565b5b145b801561062d5750600554600160045461061f9190611f3c565b6106299190611f70565b4710155b91505090565b60008054906101000a900460ff1681565b6002818154811061065457600080fd5b906000526020600020016000915054906101000a900473ffffffffffffffffffffffffffffffffffffffff1681565b600073ffffffffffffffffffffffffffffffffffffffff16600b60003373ffffffffffffffffffffffffffffffffffffffff1673ffffffffffffffffffffffffffffffffffffffff16815260200190815260200160002060009054906101000a900473ffffffffffffffffffffffffffffffffffffffff1673ffffffffffffffffffffffffffffffffffffffff161415610752576040517f08c379a000000000000000000000000000000000000000000000000000000000815260040161074990611eed565b60405180910390fd5b6001600281111561076657610765611c2a565b5b60008054906101000a900460ff16600281111561078657610785611c2a565b5b146107c6576040517f08c379a00000000000000000000000000000000000000000000000000000000081526004016107bd9061203c565b60405180910390fd5b6000600a60003373ffffffffffffffffffffffffffffffffffffffff1673ffffffffffffffffffffffffffffffffffffffff1681526020019081526020016000206040518060a0016040529081600082015481526020016001820160009054906101000a900460ff16151515158152602001600282015481526020016003820160009054906101000a900460ff161515151581526020016003820160019054906101000a900460ff16600181111561088157610880611c2a565b5b600181111561089357610892611c2a565b5b815250509050600060018111156108ad576108ac611c2a565b5b816080015160018111156108c4576108c3611c2a565b5b14610904576040517f08c379a00000000000000000000000000000000000000000000000000000000081526004016108fb906120ce565b60405180910390fd5b60001515816060015115151461094f576040517f08c379a000000000000000000000000000000000000000000000000000000000815260040161094690612160565b60405180910390fd5b60055460016004546109619190611f3c565b61096b9190611f70565b4710156109ad576040517f08c379a00000000000000000000000000000000000000000000000000000000081526004016109a4906121f2565b60405180910390fd5b600060055460016004546109c19190611f3c565b6109cb9190611f70565b90503373ffffffffffffffffffffffffffffffffffffffff166108fc829081150290604051600060405180830381858888f19350505050158015610a13573d6000803e3d6000fd5b506000600a60003373ffffffffffffffffffffffffffffffffffffffff1673ffffffffffffffffffffffffffffffffffffffff168152602001908152602001600020905060018160030160006101000a81548160ff021916908315150217905550600160086000828254610a879190612212565b9250508190555060005b600154811015610c1857600060028281548110610ab157610ab0612268565b5b9060005260206000200160009054906101000a900473ffffffffffffffffffffffffffffffffffffffff1690506000600a60008373ffffffffffffffffffffffffffffffffffffffff1673ffffffffffffffffffffffffffffffffffffffff1681526020019081526020016000209050600183610b2e9190612212565b6008541415610ba557610b4e6001600854610b499190612212565b611865565b816000018190555060018160010160006101000a81548160ff02191690831515021790555060008160030160016101000a81548160ff02191690836001811115610b9b57610b9a611c2a565b5b0217905550610c03565b610bb0600854611865565b816000018190555060008160010160006101000a81548160ff02191690831515021790555060018160030160016101000a81548160ff02191690836001811115610bfd57610bfc611c2a565b5b02179055505b50508080610c1090612297565b915050610a91565b506001546001600854610c2b9190611f3c565b1415610c5c5760026000806101000a81548160ff02191690836002811115610c5657610c55611c2a565b5b02179055505b60006001811115610c7057610c6f611c2a565b5b3373ffffffffffffffffffffffffffffffffffffffff167f5eab1271a1100f2ebc7382fc4c119edd3079053f42d02ce6d19d5308722649bf42604051610cb69190611bd9565b60405180910390a3505050565b60055481565b600a6020528060005260406000206000915090508060000154908060010160009054906101000a900460ff16908060020154908060030160009054906101000a900460ff16908060030160019054906101000a900460ff16905085565b60085481565b600360009054906101000a900473ffffffffffffffffffffffffffffffffffffffff1681565b60075481565b6000806002811115610d6d57610d6c611c2a565b5b60008054906101000a900460ff166002811115610d8d57610d8c611c2a565b5b1480610dc95750600280811115610da757610da6611c2a565b5b60008054906101000a900460ff166002811115610dc757610dc6611c2a565b5b145b610e08576040517f08c379a0000000000000000000000000000000000000000000000000000000008152600401610dff90612378565b60405180910390fd5b3373ffffffffffffffffffffffffffffffffffffffff168273ffffffffffffffffffffffffffffffffffffffff161415610e77576040517f08c379a0000000000000000000000000000000000000000000000000000000008152600401610e6e906123e4565b60405180910390fd5b600073ffffffffffffffffffffffffffffffffffffffff16600b60003373ffffffffffffffffffffffffffffffffffffffff1673ffffffffffffffffffffffffffffffffffffffff16815260200190815260200160002060009054906101000a900473ffffffffffffffffffffffffffffffffffffffff1673ffffffffffffffffffffffffffffffffffffffff161415610f46576040517f08c379a0000000000000000000000000000000000000000000000000000000008152600401610f3d9061249c565b60405180910390fd5b600073ffffffffffffffffffffffffffffffffffffffff16600c60003373ffffffffffffffffffffffffffffffffffffffff1673ffffffffffffffffffffffffffffffffffffffff16815260200190815260200160002060009054906101000a900473ffffffffffffffffffffffffffffffffffffffff1673ffffffffffffffffffffffffffffffffffffffff1614611014576040517f08c379a000000000000000000000000000000000000000000000000000000000815260040161100b9061252e565b60405180910390fd5b600073ffffffffffffffffffffffffffffffffffffffff16600b60008473ffffffffffffffffffffffffffffffffffffffff1673ffffffffffffffffffffffffffffffffffffffff16815260200190815260200160002060009054906101000a900473ffffffffffffffffffffffffffffffffffffffff1673ffffffffffffffffffffffffffffffffffffffff16146110e2576040517f08c379a00000000000000000000000000000000000000000000000000000000081526004016110d9906125e6565b60405180910390fd5b33600b60008473ffffffffffffffffffffffffffffffffffffffff1673ffffffffffffffffffffffffffffffffffffffff16815260200190815260200160002060006101000a81548173ffffffffffffffffffffffffffffffffffffffff021916908373ffffffffffffffffffffffffffffffffffffffff16021790555081600c60003373ffffffffffffffffffffffffffffffffffffffff1673ffffffffffffffffffffffffffffffffffffffff16815260200190815260200160002060006101000a81548173ffffffffffffffffffffffffffffffffffffffff021916908373ffffffffffffffffffffffffffffffffffffffff1602179055506002829080600181540180825580915050600190039060005260206000200160009091909190916101000a81548173ffffffffffffffffffffffffffffffffffffffff021916908373ffffffffffffffffffffffffffffffffffffffff1602179055506001805461124f9190612212565b60018190555060045460015414156112715742600981905550611270611897565b5b3373ffffffffffffffffffffffffffffffffffffffff168273ffffffffffffffffffffffffffffffffffffffff167f0c8f8aa5ff72e544d1fc13f5df82d1f5a24144dd0128bcb65885473543ab91b0426040516112ce9190611bd9565b60405180910390a3819050919050565b600073ffffffffffffffffffffffffffffffffffffffff16600b60003373ffffffffffffffffffffffffffffffffffffffff1673ffffffffffffffffffffffffffffffffffffffff16815260200190815260200160002060009054906101000a900473ffffffffffffffffffffffffffffffffffffffff1673ffffffffffffffffffffffffffffffffffffffff1614156113ad576040517f08c379a00000000000000000000000000000000000000000000000000000000081526004016113a490611eed565b60405180910390fd5b600160028111156113c1576113c0611c2a565b5b60008054906101000a900460ff1660028111156113e1576113e0611c2a565b5b14611421576040517f08c379a00000000000000000000000000000000000000000000000000000000081526004016114189061203c565b60405180910390fd5b6000600a60003373ffffffffffffffffffffffffffffffffffffffff1673ffffffffffffffffffffffffffffffffffffffff1681526020019081526020016000206040518060a0016040529081600082015481526020016001820160009054906101000a900460ff16151515158152602001600282015481526020016003820160009054906101000a900460ff161515151581526020016003820160019054906101000a900460ff1660018111156114dc576114db611c2a565b5b60018111156114ee576114ed611c2a565b5b81525050905060018081111561150757611506611c2a565b5b8160800151600181111561151e5761151d611c2a565b5b1461155e576040517f08c379a000000000000000000000000000000000000000000000000000000000815260040161155590612678565b60405180910390fd5b6005543410156115a3576040517f08c379a000000000000000000000000000000000000000000000000000000000815260040161159a9061270a565b60405180910390fd5b60001515600a60003373ffffffffffffffffffffffffffffffffffffffff1673ffffffffffffffffffffffffffffffffffffffff16815260200190815260200160002060010160009054906101000a900460ff16151514611639576040517f08c379a00000000000000000000000000000000000000000000000000000000081526004016116309061279c565b60405180910390fd5b60011515600a60003373ffffffffffffffffffffffffffffffffffffffff1673ffffffffffffffffffffffffffffffffffffffff16815260200190815260200160002060010160009054906101000a900460ff16151514156116d0576040517f08c379a00000000000000000000000000000000000000000000000000000000081526004016116c790612854565b60405180910390fd5b6000600a60003373ffffffffffffffffffffffffffffffffffffffff1673ffffffffffffffffffffffffffffffffffffffff168152602001908152602001600020905060018160010160006101000a81548160ff02191690831515021790555060018081111561174357611742611c2a565b5b3373ffffffffffffffffffffffffffffffffffffffff167f5eab1271a1100f2ebc7382fc4c119edd3079053f42d02ce6d19d5308722649bf426040516117899190611bd9565b60405180910390a3506000600554346117a29190611f3c565b905060008111156117f5573373ffffffffffffffffffffffffffffffffffffffff166108fc829081150290604051600060405180830381858888f193505050501580156117f3573d6000803e3d6000fd5b505b5050565b60045481565b600c6020528060005260406000206000915054906101000a900473ffffffffffffffffffffffffffffffffffffffff1681565b600b6020528060005260406000206000915054906101000a900473ffffffffffffffffffffffffffffffffffffffff1681565b600062015180600754836118799190611f70565b6118839190611f70565b6006546118909190612212565b9050919050565b600060028111156118ab576118aa611c2a565b5b60008054906101000a900460ff1660028111156118cb576118ca611c2a565b5b148061190757506002808111156118e5576118e4611c2a565b5b60008054906101000a900460ff16600281111561190557611904611c2a565b5b145b611946576040517f08c379a000000000000000000000000000000000000000000000000000000000815260040161193d90612378565b60405180910390fd5b600360009054906101000a900473ffffffffffffffffffffffffffffffffffffffff1673ffffffffffffffffffffffffffffffffffffffff163373ffffffffffffffffffffffffffffffffffffffff16146119a057600080fd5b60005b600154811015611b63576000600282815481106119c3576119c2612268565b5b9060005260206000200160009054906101000a900473ffffffffffffffffffffffffffffffffffffffff16905060006040518060a0016040528060008514611a1557611a10600854611865565b611a2d565b611a2c6001600854611a279190612212565b611865565b5b8152602001600015158152602001611a50600186611a4b9190612212565b611b90565b815260200160001515815260200160008514611a6d576001611a70565b60005b6001811115611a8257611a81611c2a565b5b815250905080600a60008473ffffffffffffffffffffffffffffffffffffffff1673ffffffffffffffffffffffffffffffffffffffff1681526020019081526020016000206000820151816000015560208201518160010160006101000a81548160ff0219169083151502179055506040820151816002015560608201518160030160006101000a81548160ff02191690831515021790555060808201518160030160016101000a81548160ff02191690836001811115611b4657611b45611c2a565b5b021790555090505050508080611b5b90612297565b9150506119a3565b5060016000806101000a81548160ff02191690836002811115611b8957611b88611c2a565b5b0217905550565b60006201518060075483611ba49190611f70565b611bae9190611f70565b42611bb99190612212565b9050919050565b6000819050919050565b611bd381611bc0565b82525050565b6000602082019050611bee6000830184611bca565b92915050565b60008115159050919050565b611c0981611bf4565b82525050565b6000602082019050611c246000830184611c00565b92915050565b7f4e487b7100000000000000000000000000000000000000000000000000000000600052602160045260246000fd5b60038110611c6a57611c69611c2a565b5b50565b6000819050611c7b82611c59565b919050565b6000611c8b82611c6d565b9050919050565b611c9b81611c80565b82525050565b6000602082019050611cb66000830184611c92565b92915050565b600080fd5b611cca81611bc0565b8114611cd557600080fd5b50565b600081359050611ce781611cc1565b92915050565b600060208284031215611d0357611d02611cbc565b5b6000611d1184828501611cd8565b91505092915050565b600073ffffffffffffffffffffffffffffffffffffffff82169050919050565b6000611d4582611d1a565b9050919050565b611d5581611d3a565b82525050565b6000602082019050611d706000830184611d4c565b92915050565b611d7f81611d3a565b8114611d8a57600080fd5b50565b600081359050611d9c81611d76565b92915050565b600060208284031215611db857611db7611cbc565b5b6000611dc684828501611d8d565b91505092915050565b60028110611de057611ddf611c2a565b5b50565b6000819050611df182611dcf565b919050565b6000611e0182611de3565b9050919050565b611e1181611df6565b82525050565b600060a082019050611e2c6000830188611bca565b611e396020830187611c00565b611e466040830186611bca565b611e536060830185611c00565b611e606080830184611e08565b9695505050505050565b600082825260208201905092915050565b7f546869732075736572206973206e6f742061206d656d626572206f662074686960008201527f7320636f6f706572617469766500000000000000000000000000000000000000602082015250565b6000611ed7602d83611e6a565b9150611ee282611e7b565b604082019050919050565b60006020820190508181036000830152611f0681611eca565b9050919050565b7f4e487b7100000000000000000000000000000000000000000000000000000000600052601160045260246000fd5b6000611f4782611bc0565b9150611f5283611bc0565b925082821015611f6557611f64611f0d565b5b828203905092915050565b6000611f7b82611bc0565b9150611f8683611bc0565b9250817fffffffffffffffffffffffffffffffffffffffffffffffffffffffffffffffff0483118215151615611fbf57611fbe611f0d565b5b828202905092915050565b7f5468697320636f6f706572617469766520686173206e6f74207965742062656560008201527f6e20737461727465642c20616464206d6f7265206d656d626572730000000000602082015250565b6000612026603b83611e6a565b915061203182611fca565b604082019050919050565b6000602082019050818103600083015261205581612019565b9050919050565b7f4974206973206e6f7420796f3b7572207475726e20746f20636c61696d20796560008201527f742c20706c6561736520776169742061207768696c6500000000000000000000602082015250565b60006120b8603683611e6a565b91506120c38261205c565b604082019050919050565b600060208201905081810360008301526120e7816120ab565b9050919050565b7f596f75206861766520616c726561647920636c61696d656420796f757220706f60008201527f6f6c000000000000000000000000000000000000000000000000000000000000602082015250565b600061214a602283611e6a565b9150612155826120ee565b604082019050919050565b600060208201905081810360008301526121798161213d565b9050919050565b7f506c6561736520486f6c64206f6e2074696c6c206d6f7265206465706f73697460008201527f7320617265206d61646500000000000000000000000000000000000000000000602082015250565b60006121dc602a83611e6a565b91506121e782612180565b604082019050919050565b6000602082019050818103600083015261220b816121cf565b9050919050565b600061221d82611bc0565b915061222883611bc0565b9250827fffffffffffffffffffffffffffffffffffffffffffffffffffffffffffffffff0382111561225d5761225c611f0d565b5b828201905092915050565b7f4e487b7100000000000000000000000000000000000000000000000000000000600052603260045260246000fd5b60006122a282611bc0565b91507fffffffffffffffffffffffffffffffffffffffffffffffffffffffffffffffff8214156122d5576122d4611f0d565b5b600182019050919050565b7f5468697320636f6f706572617469766520616c7265616479207374617274656460008201527f2c205468697320616374696f6e206973206e6f7420616c6c6f77656420616e7960208201527f206d6f72652e0000000000000000000000000000000000000000000000000000604082015250565b6000612362604683611e6a565b915061236d826122e0565b606082019050919050565b6000602082019050818103600083015261239181612355565b9050919050565b7f596f752063616e6e6f7420696e7669746520796f757273656c66210000000000600082015250565b60006123ce601b83611e6a565b91506123d982612398565b602082019050919050565b600060208201905081810360008301526123fd816123c1565b9050919050565b7f596f7520617265206e6f742061206d656d626572206f66207468697320636f6f60008201527f7065726174696f6e2c20706c65617365207265717569726520616e20696e766960208201527f74652066726f6d2061206d656d62657200000000000000000000000000000000604082015250565b6000612486605083611e6a565b915061249182612404565b606082019050919050565b600060208201905081810360008301526124b581612479565b9050919050565b7f596f75206861766520696e766974656420616e6f74686572207573657220616c60008201527f7265616479000000000000000000000000000000000000000000000000000000602082015250565b6000612518602583611e6a565b9150612523826124bc565b604082019050919050565b600060208201905081810360008301526125478161250b565b9050919050565b7f5468697320757365722068617320616c7265616479206265656e20696e76697460008201527f656420627920616e6f74686572207573657220746f2074686520636f6f70657260208201527f6174697665000000000000000000000000000000000000000000000000000000604082015250565b60006125d0604583611e6a565b91506125db8261254e565b606082019050919050565b600060208201905081810360008301526125ff816125c3565b9050919050565b7f4974206973206e6f7420796f7572207475726e20746f206465706f736974207960008201527f65742c20706c6561736520776169742061207475726e00000000000000000000602082015250565b6000612662603683611e6a565b915061266d82612606565b604082019050919050565b6000602082019050818103600083015261269181612655565b9050919050565b7f506c65617365206d616b65207375726520796f75206172652073656e64696e6760008201527f20746865206d696e696d756d2062616c616e6365000000000000000000000000602082015250565b60006126f4603483611e6a565b91506126ff82612698565b604082019050919050565b60006020820190508181036000830152612723816126e7565b9050919050565b7f596f752043616e6e6f74206d616b6520616e79206d6f7265207061796d656e7460008201527f7320666f72207468697320726f756e642e000000000000000000000000000000602082015250565b6000612786603183611e6a565b91506127918261272a565b604082019050919050565b600060208201905081810360008301526127b581612779565b9050919050565b7f596f752068617665206d616465206120636f6e747269627574696f6e20666f7260008201527f207468697320726f756e6420616c72656164792c20706c65617365207761697460208201527f2074696c6c20746865206e65787420726f756e64000000000000000000000000604082015250565b600061283e605483611e6a565b9150612849826127bc565b606082019050919050565b6000602082019050818103600083015261286d81612831565b905091905056fea26469706673582212205a1ca5d2872b36b3b07b6b7298dd9edca2fa21b7da272ecb230391d8dc3893d064736f6c634300080a0033",
  "immutableReferences": {},
  "source": "// define the solidity version\n// SPDX-License-Identifier: GPL-3.0\n/// @author Shuaibu Alexander\n/// @title A cooperative Contract\n/// @notice This is a cooperative function, it facilitates group savings\n///          and then disburses this savings to members one at a time as if they were taking a loan\npragma solidity ^0.8.3;\n// import \"hardhat/console.sol\";\n\ncontract Cooperative {\n    // ----- define the different enums which we are going to be using\n    enum TransactionType {\n        CLAIM,\n        DEPOSIT\n    }\n\n    enum Status {\n        INITIALISED,\n        STARTED,\n        CLOSED\n    }\n    enum Role {\n        CLAIMER,\n        DEPOSITOR\n    }\n    // define the different enums which we are going to be using\n\n    // ----- define the events\n    event LogTransaction(\n        address indexed user,\n        TransactionType indexed actionType,\n        uint256 timeStamp\n    );\n    event UserAdded(\n        address indexed user,\n        address indexed addedBy,\n        uint256 timestamp\n    );\n    // ----- define the events\n\n    // define a structure for the user\n    struct User {\n        uint256 nextExpectedDepositDate; //The next date at which this user can deposit money\n        bool paidForRound; //have they paid for this round of the contribution\n        uint256 claimDueDate; //the date at which they can claim the loot\n        bool claimed; //a boolean to indicate if they have actually claimed their loot\n        Role roundRole; // an indicator of if they were a depositor or claimer during this\n    }\n    // define a structure for the user\n\n    // predefine the contract's key variables\n    Status public status;\n    // initialise core variables for the contract\n    uint256 public userCount; //initialise to one to account for the user who created the contract\n    address[] public users; //store an array of all the users currently\n    address public owner;\n    uint256 public maxUsers;\n    uint256 public contributionAmount;\n    uint256 internal createdAt;\n    uint256 public frequencyInDays;\n    uint256 public currentRound;\n    uint256 public startDate;\n    // predefine the contract's key variables\n\n    // define constants\n    address private constant zeroAddress =\n        0x0000000000000000000000000000000000000000;\n    // define constants\n\n    // creating a collection of mappings which would be used across the application\n    mapping(address => User) public userSettings; //a mapping of user addresses to their payment info\n    mapping(address => address) public invitedBy; // a mapping of the address of who was invited and who was not, on order to track invitations\n    mapping(address => address) public invited; // a mapping of invitee => invitor\n\n    // creating a collection of mappings which would be used across the application\n\n    // write fallback functions, should in case a user wants to pay soome eth to this contract\n    fallback() external payable {}\n\n    receive() external payable {}\n\n    // write fallback functions, should in case a user wants to pay soome eth to this contract\n\n    // define the several modifiers which we would use across the contracts\n    modifier isMember() {\n        require(\n            invitedBy[msg.sender] != zeroAddress,\n            \"This user is not a member of this cooperative\"\n        );\n        _;\n    }\n\n    modifier onlyOwner() {\n        require(msg.sender == owner);\n        _;\n    }\n\n    modifier notEnoughMembers() {\n        require(userCount < maxUsers, \"This cooperative is already full\");\n        _;\n    }\n\n    modifier hasNotStarted() {\n        require(\n            status == Status.INITIALISED || status == Status.CLOSED,\n            \"This cooperative already started, This action is not allowed any more.\"\n        );\n        _;\n    }\n\n    modifier hasStarted() {\n        require(\n            status == Status.STARTED,\n            \"This cooperative has not yet been started, add more members\"\n        );\n        _;\n    }\n\n    // if they happen to pay more than the required amount, then refund them\n    modifier makeRefund() {\n        //refund them after pay for item (why it is before, _ checks for logic before func)\n        _;\n        uint256 amountToRefund = msg.value - contributionAmount;\n        if (amountToRefund > 0) {\n            payable(msg.sender).transfer(amountToRefund);\n        }\n    }\n\n    // check to make sure tha\n    modifier checkAmount() {\n        User memory oneUser = userSettings[msg.sender];\n        require(\n            oneUser.roundRole == Role.DEPOSITOR,\n            \"It is not your turn to deposit yet, please wait a turn\"\n        );\n        require(\n            msg.value >= contributionAmount,\n            \"Please make sure you are sending the minimum balance\"\n        );\n        require(\n            userSettings[msg.sender].paidForRound == false,\n            \"You Cannot make any more payments for this round.\"\n        );\n        _;\n    }\n\n    modifier canClaim() {\n        //make sure their due date is passed and they have not claimed it\n        User memory oneUser = userSettings[msg.sender];\n        require(\n            oneUser.roundRole == Role.CLAIMER,\n            \"It is not yo;ur turn to claim yet, please wait a while\"\n        );\n        require(oneUser.claimed == false, \"You have already claimed your pool\");\n        // maybe make sure that they can only claim at the end of the tenor\n        // require(\n        //     block.timestamp > oneUser.claimDueDate,\n        //     \"You are not due for a payment yet\"\n        // );\n        require(\n            address(this).balance >= (maxUsers - 1) * contributionAmount,\n            \"Please Hold on till more deposits are made\"\n        );\n        _;\n    }\n\n    // define the several modifiers which we would use across the contracts\n\n    /**\n     * @dev a function used to assign due dates for others\n     * @param numberOfUnits the number of days in which  we want to move foward by (in uints of the frequency of payment of the cooperative)\n     * @return It returns the time from now, in timestamp but in units of the specified interval of the contribution \n     **/\n    function _unitTimeFromNow(uint256 numberOfUnits)\n        private\n        view\n        returns (uint256)\n    {\n        return block.timestamp + (numberOfUnits * frequencyInDays * 1 days);\n    }\n\n    /**\n     * @dev a function used to offset dates from the creation date by a facrot of the frequency of payments of the contracts\n     * @param numberOfUnits the number of days in which  we want to move foward by (in uints of the frequency of payment of the cooperative)\n     * @return It returns the time from the creation date, in timestamp but in units of the specified interval of the contribution \n     **/\n    function _offsetCreationDate(uint256 numberOfUnits)\n        private\n        view\n        returns (uint256)\n    {\n        return createdAt + (numberOfUnits * frequencyInDays * 1 days);\n    }\n\n    /**\n     * @dev Set contract deployer as owner\n     */\n    constructor(uint256 _users, uint256 _contributionInEther,uint256 _frequencyInDays) {\n        require(_users >= 3, \"The maximum number of users allowed is 3\");\n        require(\n            _frequencyInDays >= 7,\n            \"The minimum frequency allowed is 7 days\"\n        );\n        require(\n            _contributionInEther > 0,\n            \"You cannot set zero as the minimum contribution\"\n        );\n        // initialise variables from constructor\n        maxUsers = _users; //this would be a oarameter to the constructor eventually\n        frequencyInDays = _frequencyInDays; //this means the frequency at which contributions are to be made\n        contributionAmount = _contributionInEther ; //this would be a parameter to the constructor eventually from the factory contract\n        // initialise variables from constructor\n\n        //initialise state variables\n        userCount = 1; //the number of users existing in this contribution\n        currentRound = 1; //which round are we on\n        owner = tx.origin; //remove after we use the ownable contract\n        users.push(tx.origin); //add this user to the array of users we have\n        createdAt = block.timestamp; //initialise the creation date of the contract\n        status = Status.INITIALISED; //initialise the contract\n        invitedBy[tx.origin] = address(this); //make the sender invited by the contract\n        //initialise state variables\n    }\n\n    /**\n     * @notice Functions of the contract\n     * @return The current balance of this smart contract\n     */\n    function getBalance() public view returns (uint256) {\n        return address(this).balance;\n    }\n\n    /// @notice Initialise all the registered users of a cooperative\n    /// @dev we use this to initialise the state of the users in the contract.\n    function initialiseUsers() internal hasNotStarted onlyOwner {\n        for (uint256 i = 0; i < userCount; i++) {\n            address oneUser = users[i];\n            User memory newUser = User({\n                roundRole: i == 0 ? Role.CLAIMER : Role.DEPOSITOR, //if it is the first user then make them a a claimer, otherwise make them a depositor\n                claimDueDate: _unitTimeFromNow(i + 1),\n                paidForRound: false,\n                claimed: false,\n                nextExpectedDepositDate: i == 0\n                    ? _offsetCreationDate(currentRound + 1)\n                    : _offsetCreationDate(currentRound) //the next date at which this user is meant to deposit\n            });\n            userSettings[oneUser] = newUser;\n            // console.log(newUser.claimDueDate);\n        }\n        status = Status.STARTED;\n    }\n\n    /// @notice Invite a new user to the cooperative pool\n    /// @dev it runs several checks to ensure unauthorised parties cannot join the cooperative society - Tested\n    /// @param newUser The address of the user which we wish to invite to the cooperation\n    /// @return address The addresss of the newly added user\n    function inviteUser(address newUser)\n        public\n        hasNotStarted\n        returns (address)\n    {\n        // run several checks to confirm the user can actually join the cooperative\n        require(newUser != msg.sender, \"You cannot invite yourself!\");\n        require(\n            invitedBy[msg.sender] != zeroAddress,\n            \"You are not a member of this cooperation, please require an invite from a member\"\n        );\n        require(\n            invited[msg.sender] == zeroAddress,\n            \"You have invited another user already\"\n        );\n        require(\n            invitedBy[newUser] == zeroAddress,\n            \"This user has already been invited by another user to the cooperative\"\n        );\n\n        invitedBy[newUser] = msg.sender;\n        invited[msg.sender] = newUser;\n\n        users.push(newUser);\n        userCount = userCount + 1;\n        if (userCount == maxUsers) {\n            startDate = block.timestamp;\n            initialiseUsers(); //initialise key variables of the user\n        }\n\n        emit UserAdded(newUser, msg.sender, block.timestamp);\n        return newUser;\n    }\n\n    ///\n    /// @notice Allows a user to claim the pooled funds for himself\n    /// @dev added extra security to refund the user should they for any reason make more deposit than they should\n    ///\n    function claim() public isMember hasStarted canClaim {\n        // if all conditions pass, then send the user the right ether\n        uint256 rightAmount = (maxUsers - 1) * contributionAmount;\n        payable(msg.sender).transfer(rightAmount);\n        // make it known that this user has claimed their stake\n        User storage currentUser = userSettings[msg.sender];\n        currentUser.claimed = true;\n        currentRound += 1;\n        // after claiming, reset everyone to a state of non payment and initialise next payment date\n        for (uint256 i = 0; i < userCount; i++) {\n            address oneUserAddress = users[i];\n            User storage oneUser = userSettings[oneUserAddress];\n            // if the current user, is the one to be paid in this cycle, then shift his next due date and roles accordingly\n            if (currentRound == i + 1) {\n                oneUser.nextExpectedDepositDate = _offsetCreationDate(\n                    currentRound + 1\n                );\n                oneUser.paidForRound = true;\n                oneUser.roundRole = Role.CLAIMER;\n            } else {\n                oneUser.nextExpectedDepositDate = _offsetCreationDate(\n                    currentRound\n                );\n                oneUser.paidForRound = false;\n                oneUser.roundRole = Role.DEPOSITOR;\n            }\n        }\n        // after the last person has claimed, then we close down the cooperative\n        if (currentRound - 1 == userCount) {\n            status = Status.CLOSED;\n        }\n        emit LogTransaction(msg.sender, TransactionType.CLAIM, block.timestamp);\n    }\n\n    ///\n    /// @notice function to help deposit, refund them if they pay more than the right amount\n    ///\n    function deposit()\n        public\n        payable\n        isMember\n        hasStarted\n        checkAmount\n        makeRefund\n    {\n        require(\n            userSettings[msg.sender].paidForRound != true,\n            \"You have made a contribution for this round already, please wait till the next round\"\n        );\n        User storage oneUser = userSettings[msg.sender];\n        oneUser.paidForRound = true;\n        emit LogTransaction(\n            msg.sender,\n            TransactionType.DEPOSIT,\n            block.timestamp\n        );\n    }\n\n    ///\n    /// @notice is used to check if the sender of the message can claim funds from the pool\n    /// @return return a boolen which indicates if the sending user can claim their pool\n    ///\n    function canClaimPool() public view isMember returns (bool) {\n        User memory oneUser = userSettings[msg.sender];\n        return\n            oneUser.claimed == false &&\n            oneUser.roundRole == Role.CLAIMER &&\n            //&& block.timestamp > oneUser.claimDueDate\n            address(this).balance >= (maxUsers - 1) * contributionAmount;\n    }\n}\n",
  "sourcePath": "/Users/xander/Documents/workstation/consensys/blockchain-developer-bootcamp-final-project/contracts/Cooperative.sol",
  "compiler": {
    "name": "solc",
    "version": "0.8.10+commit.fc410830.Emscripten.clang"
  },
  "schemaVersion": "3.4.3",
  "updatedAt": "2021-11-30T03:17:21.962Z",
  "devdoc": {
    "kind": "dev",
    "methods": {
      "canClaimPool()": {
        "returns": {
          "_0": "return a boolen which indicates if the sending user can claim their pool"
        }
      },
      "claim()": {
        "details": "added extra security to refund the user should they for any reason make more deposit than they should"
      },
      "constructor": {
        "details": "Set contract deployer as owner"
      },
      "getBalance()": {
        "returns": {
          "_0": "The current balance of this smart contract"
        }
      },
      "inviteUser(address)": {
        "details": "it runs several checks to ensure unauthorised parties cannot join the cooperative society - Tested",
        "params": {
          "newUser": "The address of the user which we wish to invite to the cooperation"
        },
        "returns": {
          "_0": "address The addresss of the newly added user"
        }
      }
    },
    "version": 1
  },
  "userdoc": {
    "kind": "user",
    "methods": {
      "canClaimPool()": {
        "notice": "is used to check if the sender of the message can claim funds from the pool"
      },
      "claim()": {
        "notice": "Allows a user to claim the pooled funds for himself"
      },
      "deposit()": {
        "notice": "function to help deposit, refund them if they pay more than the right amount"
      },
      "getBalance()": {
        "notice": "Functions of the contract"
      },
      "inviteUser(address)": {
        "notice": "Invite a new user to the cooperative pool"
      }
    },
    "version": 1
  }
}