{
  "contractName": "Cooperative",
  "abi": [
    {
      "inputs": [
        {
          "internalType": "uint256",
          "name": "_users",
          "type": "uint256"
        },
        {
          "internalType": "uint256",
          "name": "_contributionInEther",
          "type": "uint256"
        },
        {
          "internalType": "uint256",
          "name": "_frequencyInDays",
          "type": "uint256"
        }
      ],
      "stateMutability": "nonpayable",
      "type": "constructor"
    },
    {
      "anonymous": false,
      "inputs": [
        {
          "indexed": true,
          "internalType": "address",
          "name": "user",
          "type": "address"
        },
        {
          "indexed": true,
          "internalType": "enum Cooperative.TransactionType",
          "name": "actionType",
          "type": "uint8"
        },
        {
          "indexed": false,
          "internalType": "uint256",
          "name": "timeStamp",
          "type": "uint256"
        }
      ],
      "name": "LogTransaction",
      "type": "event"
    },
    {
      "anonymous": false,
      "inputs": [
        {
          "indexed": true,
          "internalType": "address",
          "name": "user",
          "type": "address"
        },
        {
          "indexed": true,
          "internalType": "address",
          "name": "addedBy",
          "type": "address"
        },
        {
          "indexed": false,
          "internalType": "uint256",
          "name": "timestamp",
          "type": "uint256"
        }
      ],
      "name": "UserAdded",
      "type": "event"
    },
    {
      "stateMutability": "payable",
      "type": "fallback"
    },
    {
      "inputs": [],
      "name": "contributionAmount",
      "outputs": [
        {
          "internalType": "uint256",
          "name": "",
          "type": "uint256"
        }
      ],
      "stateMutability": "view",
      "type": "function"
    },
    {
      "inputs": [],
      "name": "currentRound",
      "outputs": [
        {
          "internalType": "uint256",
          "name": "",
          "type": "uint256"
        }
      ],
      "stateMutability": "view",
      "type": "function"
    },
    {
      "inputs": [],
      "name": "frequencyInDays",
      "outputs": [
        {
          "internalType": "uint256",
          "name": "",
          "type": "uint256"
        }
      ],
      "stateMutability": "view",
      "type": "function"
    },
    {
      "inputs": [
        {
          "internalType": "address",
          "name": "",
          "type": "address"
        }
      ],
      "name": "invited",
      "outputs": [
        {
          "internalType": "address",
          "name": "",
          "type": "address"
        }
      ],
      "stateMutability": "view",
      "type": "function"
    },
    {
      "inputs": [
        {
          "internalType": "address",
          "name": "",
          "type": "address"
        }
      ],
      "name": "invitedBy",
      "outputs": [
        {
          "internalType": "address",
          "name": "",
          "type": "address"
        }
      ],
      "stateMutability": "view",
      "type": "function"
    },
    {
      "inputs": [],
      "name": "maxUsers",
      "outputs": [
        {
          "internalType": "uint256",
          "name": "",
          "type": "uint256"
        }
      ],
      "stateMutability": "view",
      "type": "function"
    },
    {
      "inputs": [],
      "name": "owner",
      "outputs": [
        {
          "internalType": "address",
          "name": "",
          "type": "address"
        }
      ],
      "stateMutability": "view",
      "type": "function"
    },
    {
      "inputs": [],
      "name": "startDate",
      "outputs": [
        {
          "internalType": "uint256",
          "name": "",
          "type": "uint256"
        }
      ],
      "stateMutability": "view",
      "type": "function"
    },
    {
      "inputs": [],
      "name": "status",
      "outputs": [
        {
          "internalType": "enum Cooperative.Status",
          "name": "",
          "type": "uint8"
        }
      ],
      "stateMutability": "view",
      "type": "function"
    },
    {
      "inputs": [],
      "name": "userCount",
      "outputs": [
        {
          "internalType": "uint256",
          "name": "",
          "type": "uint256"
        }
      ],
      "stateMutability": "view",
      "type": "function"
    },
    {
      "inputs": [
        {
          "internalType": "address",
          "name": "",
          "type": "address"
        }
      ],
      "name": "userSettings",
      "outputs": [
        {
          "internalType": "uint256",
          "name": "nextExpectedDepositDate",
          "type": "uint256"
        },
        {
          "internalType": "bool",
          "name": "paidForRound",
          "type": "bool"
        },
        {
          "internalType": "uint256",
          "name": "claimDueDate",
          "type": "uint256"
        },
        {
          "internalType": "bool",
          "name": "claimed",
          "type": "bool"
        },
        {
          "internalType": "enum Cooperative.Role",
          "name": "roundRole",
          "type": "uint8"
        }
      ],
      "stateMutability": "view",
      "type": "function"
    },
    {
      "inputs": [
        {
          "internalType": "uint256",
          "name": "",
          "type": "uint256"
        }
      ],
      "name": "users",
      "outputs": [
        {
          "internalType": "address",
          "name": "",
          "type": "address"
        }
      ],
      "stateMutability": "view",
      "type": "function"
    },
    {
      "stateMutability": "payable",
      "type": "receive"
    },
    {
      "inputs": [],
      "name": "getBalance",
      "outputs": [
        {
          "internalType": "uint256",
          "name": "",
          "type": "uint256"
        }
      ],
      "stateMutability": "view",
      "type": "function"
    },
    {
      "inputs": [
        {
          "internalType": "address",
          "name": "newUser",
          "type": "address"
        }
      ],
      "name": "inviteUser",
      "outputs": [
        {
          "internalType": "address",
          "name": "",
          "type": "address"
        }
      ],
      "stateMutability": "nonpayable",
      "type": "function"
    },
    {
      "inputs": [],
      "name": "claim",
      "outputs": [],
      "stateMutability": "nonpayable",
      "type": "function"
    },
    {
      "inputs": [],
      "name": "deposit",
      "outputs": [],
      "stateMutability": "payable",
      "type": "function"
    },
    {
      "inputs": [],
      "name": "canClaimPool",
      "outputs": [
        {
          "internalType": "bool",
          "name": "",
          "type": "bool"
        }
      ],
      "stateMutability": "view",
      "type": "function"
    }
  ],
  "bytecode": "0x60806040523480156200001157600080fd5b5060405162002d9238038062002d928339818101604052810190620000379190620002ce565b60038310156200007e576040517f08c379a00000000000000000000000000000000000000000000000000000000081526004016200007590620003b1565b60405180910390fd5b6007811015620000c5576040517f08c379a0000000000000000000000000000000000000000000000000000000008152600401620000bc9062000449565b60405180910390fd5b600082116200010b576040517f08c379a00000000000000000000000000000000000000000000000000000000081526004016200010290620004e1565b60405180910390fd5b82600481905550806007819055508160058190555060018081905550600160088190555032600360006101000a81548173ffffffffffffffffffffffffffffffffffffffff021916908373ffffffffffffffffffffffffffffffffffffffff1602179055506002329080600181540180825580915050600190039060005260206000200160009091909190916101000a81548173ffffffffffffffffffffffffffffffffffffffff021916908373ffffffffffffffffffffffffffffffffffffffff1602179055504260068190555060008060006101000a81548160ff0219169083600281111562000202576200020162000503565b5b021790555030600b60003273ffffffffffffffffffffffffffffffffffffffff1673ffffffffffffffffffffffffffffffffffffffff16815260200190815260200160002060006101000a81548173ffffffffffffffffffffffffffffffffffffffff021916908373ffffffffffffffffffffffffffffffffffffffff16021790555050505062000532565b600080fd5b6000819050919050565b620002a88162000293565b8114620002b457600080fd5b50565b600081519050620002c8816200029d565b92915050565b600080600060608486031215620002ea57620002e96200028e565b5b6000620002fa86828701620002b7565b93505060206200030d86828701620002b7565b92505060406200032086828701620002b7565b9150509250925092565b600082825260208201905092915050565b7f546865206d6178696d756d206e756d626572206f6620757365727320616c6c6f60008201527f7765642069732033000000000000000000000000000000000000000000000000602082015250565b6000620003996028836200032a565b9150620003a6826200033b565b604082019050919050565b60006020820190508181036000830152620003cc816200038a565b9050919050565b7f546865206d696e696d756d206672657175656e637920616c6c6f77656420697360008201527f2037206461797300000000000000000000000000000000000000000000000000602082015250565b6000620004316027836200032a565b91506200043e82620003d3565b604082019050919050565b60006020820190508181036000830152620004648162000422565b9050919050565b7f596f752063616e6e6f7420736574207a65726f20617320746865206d696e696d60008201527f756d20636f6e747269627574696f6e0000000000000000000000000000000000602082015250565b6000620004c9602f836200032a565b9150620004d6826200046b565b604082019050919050565b60006020820190508181036000830152620004fc81620004ba565b9050919050565b7f4e487b7100000000000000000000000000000000000000000000000000000000600052602160045260246000fd5b61285080620005426000396000f3fe6080604052600436106101025760003560e01c80637ef8513a11610095578063c429875211610064578063c429875214610323578063d0e30db014610360578063e1b0e8021461036a578063f0cd594514610395578063f1f8d7da146103d257610109565b80637ef8513a146102615780638a19c8bc146102a25780638da5cb5b146102cd578063b69a4962146102f857610109565b8063200d2ed2116100d1578063200d2ed2146101b7578063365b98b2146101e25780634e71d92d1461021f5780635fa0b65f1461023657610109565b806307973ccf1461010b5780630b97bc861461013657806312065fe014610161578063154876771461018c57610109565b3661010957005b005b34801561011757600080fd5b5061012061040f565b60405161012d9190611b7f565b60405180910390f35b34801561014257600080fd5b5061014b610415565b6040516101589190611b7f565b60405180910390f35b34801561016d57600080fd5b5061017661041b565b6040516101839190611b7f565b60405180910390f35b34801561019857600080fd5b506101a1610423565b6040516101ae9190611bb5565b60405180910390f35b3480156101c357600080fd5b506101cc610633565b6040516101d99190611c47565b60405180910390f35b3480156101ee57600080fd5b5061020960048036038101906102049190611c93565b610644565b6040516102169190611d01565b60405180910390f35b34801561022b57600080fd5b50610234610683565b005b34801561024257600080fd5b5061024b610cc3565b6040516102589190611b7f565b60405180910390f35b34801561026d57600080fd5b5061028860048036038101906102839190611d48565b610cc9565b604051610299959493929190611dbd565b60405180910390f35b3480156102ae57600080fd5b506102b7610d26565b6040516102c49190611b7f565b60405180910390f35b3480156102d957600080fd5b506102e2610d2c565b6040516102ef9190611d01565b60405180910390f35b34801561030457600080fd5b5061030d610d52565b60405161031a9190611b7f565b60405180910390f35b34801561032f57600080fd5b5061034a60048036038101906103459190611d48565b610d58565b6040516103579190611d01565b60405180910390f35b6103686112de565b005b34801561037657600080fd5b5061037f6117f9565b60405161038c9190611b7f565b60405180910390f35b3480156103a157600080fd5b506103bc60048036038101906103b79190611d48565b6117ff565b6040516103c99190611d01565b60405180910390f35b3480156103de57600080fd5b506103f960048036038101906103f49190611d48565b611832565b6040516104069190611d01565b60405180910390f35b60015481565b60095481565b600047905090565b60008073ffffffffffffffffffffffffffffffffffffffff16600b60003373ffffffffffffffffffffffffffffffffffffffff1673ffffffffffffffffffffffffffffffffffffffff16815260200190815260200160002060009054906101000a900473ffffffffffffffffffffffffffffffffffffffff1673ffffffffffffffffffffffffffffffffffffffff1614156104f3576040517f08c379a00000000000000000000000000000000000000000000000000000000081526004016104ea90611e93565b60405180910390fd5b6000600a60003373ffffffffffffffffffffffffffffffffffffffff1673ffffffffffffffffffffffffffffffffffffffff1681526020019081526020016000206040518060a0016040529081600082015481526020016001820160009054906101000a900460ff16151515158152602001600282015481526020016003820160009054906101000a900460ff161515151581526020016003820160019054906101000a900460ff1660018111156105ae576105ad611bd0565b5b60018111156105c0576105bf611bd0565b5b81525050905060001515816060015115151480156106065750600060018111156105ed576105ec611bd0565b5b8160800151600181111561060457610603611bd0565b5b145b801561062d5750600554600160045461061f9190611ee2565b6106299190611f16565b4710155b91505090565b60008054906101000a900460ff1681565b6002818154811061065457600080fd5b906000526020600020016000915054906101000a900473ffffffffffffffffffffffffffffffffffffffff1681565b600073ffffffffffffffffffffffffffffffffffffffff16600b60003373ffffffffffffffffffffffffffffffffffffffff1673ffffffffffffffffffffffffffffffffffffffff16815260200190815260200160002060009054906101000a900473ffffffffffffffffffffffffffffffffffffffff1673ffffffffffffffffffffffffffffffffffffffff161415610752576040517f08c379a000000000000000000000000000000000000000000000000000000000815260040161074990611e93565b60405180910390fd5b6001600281111561076657610765611bd0565b5b60008054906101000a900460ff16600281111561078657610785611bd0565b5b146107c6576040517f08c379a00000000000000000000000000000000000000000000000000000000081526004016107bd90611fe2565b60405180910390fd5b6000600a60003373ffffffffffffffffffffffffffffffffffffffff1673ffffffffffffffffffffffffffffffffffffffff1681526020019081526020016000206040518060a0016040529081600082015481526020016001820160009054906101000a900460ff16151515158152602001600282015481526020016003820160009054906101000a900460ff161515151581526020016003820160019054906101000a900460ff16600181111561088157610880611bd0565b5b600181111561089357610892611bd0565b5b815250509050600060018111156108ad576108ac611bd0565b5b816080015160018111156108c4576108c3611bd0565b5b14610904576040517f08c379a00000000000000000000000000000000000000000000000000000000081526004016108fb90612074565b60405180910390fd5b60001515816060015115151461094f576040517f08c379a000000000000000000000000000000000000000000000000000000000815260040161094690612106565b60405180910390fd5b60055460016004546109619190611ee2565b61096b9190611f16565b4710156109ad576040517f08c379a00000000000000000000000000000000000000000000000000000000081526004016109a490612198565b60405180910390fd5b600060055460016004546109c19190611ee2565b6109cb9190611f16565b90503373ffffffffffffffffffffffffffffffffffffffff166108fc829081150290604051600060405180830381858888f19350505050158015610a13573d6000803e3d6000fd5b506000600a60003373ffffffffffffffffffffffffffffffffffffffff1673ffffffffffffffffffffffffffffffffffffffff168152602001908152602001600020905060018160030160006101000a81548160ff021916908315150217905550600160086000828254610a8791906121b8565b9250508190555060005b600154811015610c1857600060028281548110610ab157610ab061220e565b5b9060005260206000200160009054906101000a900473ffffffffffffffffffffffffffffffffffffffff1690506000600a60008373ffffffffffffffffffffffffffffffffffffffff1673ffffffffffffffffffffffffffffffffffffffff1681526020019081526020016000209050600183610b2e91906121b8565b6008541415610ba557610b4e6001600854610b4991906121b8565b611865565b816000018190555060018160010160006101000a81548160ff02191690831515021790555060008160030160016101000a81548160ff02191690836001811115610b9b57610b9a611bd0565b5b0217905550610c03565b610bb0600854611865565b816000018190555060008160010160006101000a81548160ff02191690831515021790555060018160030160016101000a81548160ff02191690836001811115610bfd57610bfc611bd0565b5b02179055505b50508080610c109061223d565b915050610a91565b506001546001600854610c2b9190611ee2565b1415610c5c5760026000806101000a81548160ff02191690836002811115610c5657610c55611bd0565b5b02179055505b60006001811115610c7057610c6f611bd0565b5b3373ffffffffffffffffffffffffffffffffffffffff167f5eab1271a1100f2ebc7382fc4c119edd3079053f42d02ce6d19d5308722649bf42604051610cb69190611b7f565b60405180910390a3505050565b60055481565b600a6020528060005260406000206000915090508060000154908060010160009054906101000a900460ff16908060020154908060030160009054906101000a900460ff16908060030160019054906101000a900460ff16905085565b60085481565b600360009054906101000a900473ffffffffffffffffffffffffffffffffffffffff1681565b60075481565b6000806002811115610d6d57610d6c611bd0565b5b60008054906101000a900460ff166002811115610d8d57610d8c611bd0565b5b1480610dc95750600280811115610da757610da6611bd0565b5b60008054906101000a900460ff166002811115610dc757610dc6611bd0565b5b145b610e08576040517f08c379a0000000000000000000000000000000000000000000000000000000008152600401610dff9061231e565b60405180910390fd5b3373ffffffffffffffffffffffffffffffffffffffff168273ffffffffffffffffffffffffffffffffffffffff161415610e77576040517f08c379a0000000000000000000000000000000000000000000000000000000008152600401610e6e9061238a565b60405180910390fd5b600073ffffffffffffffffffffffffffffffffffffffff16600b60003373ffffffffffffffffffffffffffffffffffffffff1673ffffffffffffffffffffffffffffffffffffffff16815260200190815260200160002060009054906101000a900473ffffffffffffffffffffffffffffffffffffffff1673ffffffffffffffffffffffffffffffffffffffff161415610f46576040517f08c379a0000000000000000000000000000000000000000000000000000000008152600401610f3d90612442565b60405180910390fd5b600073ffffffffffffffffffffffffffffffffffffffff16600c60003373ffffffffffffffffffffffffffffffffffffffff1673ffffffffffffffffffffffffffffffffffffffff16815260200190815260200160002060009054906101000a900473ffffffffffffffffffffffffffffffffffffffff1673ffffffffffffffffffffffffffffffffffffffff1614611014576040517f08c379a000000000000000000000000000000000000000000000000000000000815260040161100b906124d4565b60405180910390fd5b600073ffffffffffffffffffffffffffffffffffffffff16600b60008473ffffffffffffffffffffffffffffffffffffffff1673ffffffffffffffffffffffffffffffffffffffff16815260200190815260200160002060009054906101000a900473ffffffffffffffffffffffffffffffffffffffff1673ffffffffffffffffffffffffffffffffffffffff16146110e2576040517f08c379a00000000000000000000000000000000000000000000000000000000081526004016110d99061258c565b60405180910390fd5b33600b60008473ffffffffffffffffffffffffffffffffffffffff1673ffffffffffffffffffffffffffffffffffffffff16815260200190815260200160002060006101000a81548173ffffffffffffffffffffffffffffffffffffffff021916908373ffffffffffffffffffffffffffffffffffffffff16021790555081600c60003373ffffffffffffffffffffffffffffffffffffffff1673ffffffffffffffffffffffffffffffffffffffff16815260200190815260200160002060006101000a81548173ffffffffffffffffffffffffffffffffffffffff021916908373ffffffffffffffffffffffffffffffffffffffff1602179055506002829080600181540180825580915050600190039060005260206000200160009091909190916101000a81548173ffffffffffffffffffffffffffffffffffffffff021916908373ffffffffffffffffffffffffffffffffffffffff1602179055506001805461124f91906121b8565b60018190555060045460015414156112715742600981905550611270611897565b5b3373ffffffffffffffffffffffffffffffffffffffff168273ffffffffffffffffffffffffffffffffffffffff167f0c8f8aa5ff72e544d1fc13f5df82d1f5a24144dd0128bcb65885473543ab91b0426040516112ce9190611b7f565b60405180910390a3819050919050565b600073ffffffffffffffffffffffffffffffffffffffff16600b60003373ffffffffffffffffffffffffffffffffffffffff1673ffffffffffffffffffffffffffffffffffffffff16815260200190815260200160002060009054906101000a900473ffffffffffffffffffffffffffffffffffffffff1673ffffffffffffffffffffffffffffffffffffffff1614156113ad576040517f08c379a00000000000000000000000000000000000000000000000000000000081526004016113a490611e93565b60405180910390fd5b600160028111156113c1576113c0611bd0565b5b60008054906101000a900460ff1660028111156113e1576113e0611bd0565b5b14611421576040517f08c379a000000000000000000000000000000000000000000000000000000000815260040161141890611fe2565b60405180910390fd5b6000600a60003373ffffffffffffffffffffffffffffffffffffffff1673ffffffffffffffffffffffffffffffffffffffff1681526020019081526020016000206040518060a0016040529081600082015481526020016001820160009054906101000a900460ff16151515158152602001600282015481526020016003820160009054906101000a900460ff161515151581526020016003820160019054906101000a900460ff1660018111156114dc576114db611bd0565b5b60018111156114ee576114ed611bd0565b5b81525050905060018081111561150757611506611bd0565b5b8160800151600181111561151e5761151d611bd0565b5b1461155e576040517f08c379a00000000000000000000000000000000000000000000000000000000081526004016115559061261e565b60405180910390fd5b6005543410156115a3576040517f08c379a000000000000000000000000000000000000000000000000000000000815260040161159a906126b0565b60405180910390fd5b60001515600a60003373ffffffffffffffffffffffffffffffffffffffff1673ffffffffffffffffffffffffffffffffffffffff16815260200190815260200160002060010160009054906101000a900460ff16151514611639576040517f08c379a000000000000000000000000000000000000000000000000000000000815260040161163090612742565b60405180910390fd5b60011515600a60003373ffffffffffffffffffffffffffffffffffffffff1673ffffffffffffffffffffffffffffffffffffffff16815260200190815260200160002060010160009054906101000a900460ff16151514156116d0576040517f08c379a00000000000000000000000000000000000000000000000000000000081526004016116c7906127fa565b60405180910390fd5b6000600a60003373ffffffffffffffffffffffffffffffffffffffff1673ffffffffffffffffffffffffffffffffffffffff168152602001908152602001600020905060018160010160006101000a81548160ff02191690831515021790555060018081111561174357611742611bd0565b5b3373ffffffffffffffffffffffffffffffffffffffff167f5eab1271a1100f2ebc7382fc4c119edd3079053f42d02ce6d19d5308722649bf426040516117899190611b7f565b60405180910390a3506000600554346117a29190611ee2565b905060008111156117f5573373ffffffffffffffffffffffffffffffffffffffff166108fc829081150290604051600060405180830381858888f193505050501580156117f3573d6000803e3d6000fd5b505b5050565b60045481565b600c6020528060005260406000206000915054906101000a900473ffffffffffffffffffffffffffffffffffffffff1681565b600b6020528060005260406000206000915054906101000a900473ffffffffffffffffffffffffffffffffffffffff1681565b600062015180600754836118799190611f16565b6118839190611f16565b60065461189091906121b8565b9050919050565b600060028111156118ab576118aa611bd0565b5b60008054906101000a900460ff1660028111156118cb576118ca611bd0565b5b148061190757506002808111156118e5576118e4611bd0565b5b60008054906101000a900460ff16600281111561190557611904611bd0565b5b145b611946576040517f08c379a000000000000000000000000000000000000000000000000000000000815260040161193d9061231e565b60405180910390fd5b60005b600154811015611b09576000600282815481106119695761196861220e565b5b9060005260206000200160009054906101000a900473ffffffffffffffffffffffffffffffffffffffff16905060006040518060a00160405280600085146119bb576119b6600854611865565b6119d3565b6119d260016008546119cd91906121b8565b611865565b5b81526020016000151581526020016119f66001866119f191906121b8565b611b36565b815260200160001515815260200160008514611a13576001611a16565b60005b6001811115611a2857611a27611bd0565b5b815250905080600a60008473ffffffffffffffffffffffffffffffffffffffff1673ffffffffffffffffffffffffffffffffffffffff1681526020019081526020016000206000820151816000015560208201518160010160006101000a81548160ff0219169083151502179055506040820151816002015560608201518160030160006101000a81548160ff02191690831515021790555060808201518160030160016101000a81548160ff02191690836001811115611aec57611aeb611bd0565b5b021790555090505050508080611b019061223d565b915050611949565b5060016000806101000a81548160ff02191690836002811115611b2f57611b2e611bd0565b5b0217905550565b60006201518060075483611b4a9190611f16565b611b549190611f16565b42611b5f91906121b8565b9050919050565b6000819050919050565b611b7981611b66565b82525050565b6000602082019050611b946000830184611b70565b92915050565b60008115159050919050565b611baf81611b9a565b82525050565b6000602082019050611bca6000830184611ba6565b92915050565b7f4e487b7100000000000000000000000000000000000000000000000000000000600052602160045260246000fd5b60038110611c1057611c0f611bd0565b5b50565b6000819050611c2182611bff565b919050565b6000611c3182611c13565b9050919050565b611c4181611c26565b82525050565b6000602082019050611c5c6000830184611c38565b92915050565b600080fd5b611c7081611b66565b8114611c7b57600080fd5b50565b600081359050611c8d81611c67565b92915050565b600060208284031215611ca957611ca8611c62565b5b6000611cb784828501611c7e565b91505092915050565b600073ffffffffffffffffffffffffffffffffffffffff82169050919050565b6000611ceb82611cc0565b9050919050565b611cfb81611ce0565b82525050565b6000602082019050611d166000830184611cf2565b92915050565b611d2581611ce0565b8114611d3057600080fd5b50565b600081359050611d4281611d1c565b92915050565b600060208284031215611d5e57611d5d611c62565b5b6000611d6c84828501611d33565b91505092915050565b60028110611d8657611d85611bd0565b5b50565b6000819050611d9782611d75565b919050565b6000611da782611d89565b9050919050565b611db781611d9c565b82525050565b600060a082019050611dd26000830188611b70565b611ddf6020830187611ba6565b611dec6040830186611b70565b611df96060830185611ba6565b611e066080830184611dae565b9695505050505050565b600082825260208201905092915050565b7f546869732075736572206973206e6f742061206d656d626572206f662074686960008201527f7320636f6f706572617469766500000000000000000000000000000000000000602082015250565b6000611e7d602d83611e10565b9150611e8882611e21565b604082019050919050565b60006020820190508181036000830152611eac81611e70565b9050919050565b7f4e487b7100000000000000000000000000000000000000000000000000000000600052601160045260246000fd5b6000611eed82611b66565b9150611ef883611b66565b925082821015611f0b57611f0a611eb3565b5b828203905092915050565b6000611f2182611b66565b9150611f2c83611b66565b9250817fffffffffffffffffffffffffffffffffffffffffffffffffffffffffffffffff0483118215151615611f6557611f64611eb3565b5b828202905092915050565b7f5468697320636f6f706572617469766520686173206e6f74207965742062656560008201527f6e20737461727465642c20616464206d6f7265206d656d626572730000000000602082015250565b6000611fcc603b83611e10565b9150611fd782611f70565b604082019050919050565b60006020820190508181036000830152611ffb81611fbf565b9050919050565b7f4974206973206e6f7420796f3b7572207475726e20746f20636c61696d20796560008201527f742c20706c6561736520776169742061207768696c6500000000000000000000602082015250565b600061205e603683611e10565b915061206982612002565b604082019050919050565b6000602082019050818103600083015261208d81612051565b9050919050565b7f596f75206861766520616c726561647920636c61696d656420796f757220706f60008201527f6f6c000000000000000000000000000000000000000000000000000000000000602082015250565b60006120f0602283611e10565b91506120fb82612094565b604082019050919050565b6000602082019050818103600083015261211f816120e3565b9050919050565b7f506c6561736520486f6c64206f6e2074696c6c206d6f7265206465706f73697460008201527f7320617265206d61646500000000000000000000000000000000000000000000602082015250565b6000612182602a83611e10565b915061218d82612126565b604082019050919050565b600060208201905081810360008301526121b181612175565b9050919050565b60006121c382611b66565b91506121ce83611b66565b9250827fffffffffffffffffffffffffffffffffffffffffffffffffffffffffffffffff0382111561220357612202611eb3565b5b828201905092915050565b7f4e487b7100000000000000000000000000000000000000000000000000000000600052603260045260246000fd5b600061224882611b66565b91507fffffffffffffffffffffffffffffffffffffffffffffffffffffffffffffffff82141561227b5761227a611eb3565b5b600182019050919050565b7f5468697320636f6f706572617469766520616c7265616479207374617274656460008201527f2c205468697320616374696f6e206973206e6f7420616c6c6f77656420616e7960208201527f206d6f72652e0000000000000000000000000000000000000000000000000000604082015250565b6000612308604683611e10565b915061231382612286565b606082019050919050565b60006020820190508181036000830152612337816122fb565b9050919050565b7f596f752063616e6e6f7420696e7669746520796f757273656c66210000000000600082015250565b6000612374601b83611e10565b915061237f8261233e565b602082019050919050565b600060208201905081810360008301526123a381612367565b9050919050565b7f596f7520617265206e6f742061206d656d626572206f66207468697320636f6f60008201527f7065726174696f6e2c20706c65617365207265717569726520616e20696e766960208201527f74652066726f6d2061206d656d62657200000000000000000000000000000000604082015250565b600061242c605083611e10565b9150612437826123aa565b606082019050919050565b6000602082019050818103600083015261245b8161241f565b9050919050565b7f596f75206861766520696e766974656420616e6f74686572207573657220616c60008201527f7265616479000000000000000000000000000000000000000000000000000000602082015250565b60006124be602583611e10565b91506124c982612462565b604082019050919050565b600060208201905081810360008301526124ed816124b1565b9050919050565b7f5468697320757365722068617320616c7265616479206265656e20696e76697460008201527f656420627920616e6f74686572207573657220746f2074686520636f6f70657260208201527f6174697665000000000000000000000000000000000000000000000000000000604082015250565b6000612576604583611e10565b9150612581826124f4565b606082019050919050565b600060208201905081810360008301526125a581612569565b9050919050565b7f4974206973206e6f7420796f7572207475726e20746f206465706f736974207960008201527f65742c20706c6561736520776169742061207475726e00000000000000000000602082015250565b6000612608603683611e10565b9150612613826125ac565b604082019050919050565b60006020820190508181036000830152612637816125fb565b9050919050565b7f506c65617365206d616b65207375726520796f75206172652073656e64696e6760008201527f20746865206d696e696d756d2062616c616e6365000000000000000000000000602082015250565b600061269a603483611e10565b91506126a58261263e565b604082019050919050565b600060208201905081810360008301526126c98161268d565b9050919050565b7f596f752043616e6e6f74206d616b6520616e79206d6f7265207061796d656e7460008201527f7320666f72207468697320726f756e642e000000000000000000000000000000602082015250565b600061272c603183611e10565b9150612737826126d0565b604082019050919050565b6000602082019050818103600083015261275b8161271f565b9050919050565b7f596f752068617665206d616465206120636f6e747269627574696f6e20666f7260008201527f207468697320726f756e6420616c72656164792c20706c65617365207761697460208201527f2074696c6c20746865206e65787420726f756e64000000000000000000000000604082015250565b60006127e4605483611e10565b91506127ef82612762565b606082019050919050565b60006020820190508181036000830152612813816127d7565b905091905056fea264697066735822122001dfa01077a9b8039aa09abf9f5e0dc43b24dc818d326dc55857c8c015b6dcd064736f6c634300080a0033",
  "immutableReferences": {},
  "source": "// define the solidity version\n// SPDX-License-Identifier: GPL-3.0\n/// @author Shuaibu Alexander\n/// @title A cooperative Contract\npragma solidity ^0.8.3;\n// import \"hardhat/console.sol\";\n\ncontract Cooperative {\n    // ----- define the different enums which we are going to be using\n    enum TransactionType {\n        CLAIM,\n        DEPOSIT\n    }\n\n    enum Status {\n        INITIALISED,\n        STARTED,\n        CLOSED\n    }\n    enum Role {\n        CLAIMER,\n        DEPOSITOR\n    }\n    // define the different enums which we are going to be using\n\n    // ----- define the events\n    event LogTransaction(\n        address indexed user,\n        TransactionType indexed actionType,\n        uint256 timeStamp\n    );\n    event UserAdded(\n        address indexed user,\n        address indexed addedBy,\n        uint256 timestamp\n    );\n    // ----- define the events\n\n    // define a structure for the user\n    struct User {\n        uint256 nextExpectedDepositDate; //The next date at which this user can deposit money\n        bool paidForRound; //have they paid for this round of the contribution\n        uint256 claimDueDate; //the date at which they can claim the loot\n        bool claimed; //a boolean to indicate if they have actually claimed their loot\n        Role roundRole; // an indicator of if they were a depositor or claimer during this\n    }\n    // define a structure for the user\n\n    // predefine the contract's key variables\n    Status public status;\n    // initialise core variables for the contract\n    uint256 public userCount; //initialise to one to account for the user who created the contract\n    address[] public users; //store an array of all the users currently\n    address public owner;\n    uint256 public maxUsers;\n    uint256 public contributionAmount;\n    uint256 internal createdAt;\n    uint256 public frequencyInDays;\n    uint256 public currentRound;\n    uint256 public startDate;\n    // predefine the contract's key variables\n\n    // define constants\n    address private constant zeroAddress =\n        0x0000000000000000000000000000000000000000;\n    // define constants\n\n    // creating a collection of mappings which would be used across the application\n    mapping(address => User) public userSettings; //a mapping of user addresses to their payment info\n    mapping(address => address) public invitedBy; // a mapping of the address of who was invited and who was not, on order to track invitations\n    mapping(address => address) public invited; // a mapping of invitee => invitor\n\n    // creating a collection of mappings which would be used across the application\n\n    // write fallback functions, should in case a user wants to pay soome eth to this contract\n    fallback() external payable {}\n\n    receive() external payable {}\n\n    // write fallback functions, should in case a user wants to pay soome eth to this contract\n\n    // define the several modifiers which we would use across the contracts\n    modifier isMember() {\n        require(\n            invitedBy[msg.sender] != zeroAddress,\n            \"This user is not a member of this cooperative\"\n        );\n        _;\n    }\n\n    modifier onlyOwner() {\n        require(msg.sender == owner);\n        _;\n    }\n\n    modifier notEnoughMembers() {\n        require(userCount < maxUsers, \"This cooperative is already full\");\n        _;\n    }\n\n    modifier hasNotStarted() {\n        require(\n            status == Status.INITIALISED || status == Status.CLOSED,\n            \"This cooperative already started, This action is not allowed any more.\"\n        );\n        _;\n    }\n\n    modifier hasStarted() {\n        require(\n            status == Status.STARTED,\n            \"This cooperative has not yet been started, add more members\"\n        );\n        _;\n    }\n\n    // if they happen to pay more than the required amount, then refund them\n    modifier makeRefund() {\n        //refund them after pay for item (why it is before, _ checks for logic before func)\n        _;\n        uint256 amountToRefund = msg.value - contributionAmount;\n        if (amountToRefund > 0) {\n            payable(msg.sender).transfer(amountToRefund);\n        }\n    }\n\n    // check to make sure tha\n    modifier checkAmount() {\n        User memory oneUser = userSettings[msg.sender];\n        require(\n            oneUser.roundRole == Role.DEPOSITOR,\n            \"It is not your turn to deposit yet, please wait a turn\"\n        );\n        require(\n            msg.value >= contributionAmount,\n            \"Please make sure you are sending the minimum balance\"\n        );\n        require(\n            userSettings[msg.sender].paidForRound == false,\n            \"You Cannot make any more payments for this round.\"\n        );\n        _;\n    }\n\n    modifier canClaim() {\n        //make sure their due date is passed and they have not claimed it\n        User memory oneUser = userSettings[msg.sender];\n        require(\n            oneUser.roundRole == Role.CLAIMER,\n            \"It is not yo;ur turn to claim yet, please wait a while\"\n        );\n        require(oneUser.claimed == false, \"You have already claimed your pool\");\n        // maybe make sure that they can only claim at the end of the tenor\n        // require(\n        //     block.timestamp > oneUser.claimDueDate,\n        //     \"You are not due for a payment yet\"\n        // );\n        require(\n            address(this).balance >= (maxUsers - 1) * contributionAmount,\n            \"Please Hold on till more deposits are made\"\n        );\n        _;\n    }\n\n    // define the several modifiers which we would use across the contracts\n\n    /**\n     * @dev a function used to assign due dates for others\n     * @param numberOfUnits the number of days in which  we want to move foward by (in uints of the frequency of payment of the cooperative)\n     **/\n    function _unitTimeFromNow(uint256 numberOfUnits)\n        private\n        view\n        returns (uint256)\n    {\n        return block.timestamp + (numberOfUnits * frequencyInDays * 1 days);\n    }\n\n    /**\n     * @dev a function used to offset dates from the creation date by a facrot of the frequency of payments of the contracts\n     **/\n    function _offsetCreationDate(uint256 numberOfUnits)\n        private\n        view\n        returns (uint256)\n    {\n        return createdAt + (numberOfUnits * frequencyInDays * 1 days);\n    }\n\n    /**\n     * @dev Set contract deployer as owner\n     */\n    constructor(uint256 _users, uint256 _contributionInEther,uint256 _frequencyInDays) {\n        require(_users >= 3, \"The maximum number of users allowed is 3\");\n        require(\n            _frequencyInDays >= 7,\n            \"The minimum frequency allowed is 7 days\"\n        );\n        require(\n            _contributionInEther > 0,\n            \"You cannot set zero as the minimum contribution\"\n        );\n        // initialise variables from constructor\n        maxUsers = _users; //this would be a oarameter to the constructor eventually\n        frequencyInDays = _frequencyInDays; //this means the frequency at which contributions are to be made\n        contributionAmount = _contributionInEther ; //this would be a parameter to the constructor eventually from the factory contract\n        // initialise variables from constructor\n\n        //initialise state variables\n        userCount = 1; //the number of users existing in this contribution\n        currentRound = 1; //which round are we on\n        owner = tx.origin; //remove after we use the ownable contract\n        users.push(tx.origin); //add this user to the array of users we have\n        createdAt = block.timestamp; //initialise the creation date of the contract\n        status = Status.INITIALISED; //initialise the contract\n        invitedBy[tx.origin] = address(this); //make the sender invited by the contract\n        //initialise state variables\n    }\n\n    /*\n     * Functions of the contract\n     */\n    // function to return the balance of the contract\n    function getBalance() public view returns (uint256) {\n        return address(this).balance;\n    }\n\n    /// @notice Initialise all the registered users of a cooperative\n    /// @dev we use this to initialise the state of the users in the contract.\n    function initialiseUsers() internal hasNotStarted {\n        for (uint256 i = 0; i < userCount; i++) {\n            address oneUser = users[i];\n            User memory newUser = User({\n                roundRole: i == 0 ? Role.CLAIMER : Role.DEPOSITOR, //if it is the first user then make them a a claimer, otherwise make them a depositor\n                claimDueDate: _unitTimeFromNow(i + 1),\n                paidForRound: false,\n                claimed: false,\n                nextExpectedDepositDate: i == 0\n                    ? _offsetCreationDate(currentRound + 1)\n                    : _offsetCreationDate(currentRound) //the next date at which this user is meant to deposit\n            });\n            userSettings[oneUser] = newUser;\n            // console.log(newUser.claimDueDate);\n        }\n        status = Status.STARTED;\n    }\n\n    /// @notice Invite a new user to the cooperative pool\n    /// @dev it runs several checks to ensure unauthorised parties cannot join the cooperative society - Tested\n    /// @param newUser The address of the user which we wish to invite to the cooperation\n    /// @return address The addresss of the newly added user\n    function inviteUser(address newUser)\n        public\n        hasNotStarted\n        returns (address)\n    {\n        // run several checks to confirm the user can actually join the cooperative\n        require(newUser != msg.sender, \"You cannot invite yourself!\");\n        require(\n            invitedBy[msg.sender] != zeroAddress,\n            \"You are not a member of this cooperation, please require an invite from a member\"\n        );\n        require(\n            invited[msg.sender] == zeroAddress,\n            \"You have invited another user already\"\n        );\n        require(\n            invitedBy[newUser] == zeroAddress,\n            \"This user has already been invited by another user to the cooperative\"\n        );\n\n        invitedBy[newUser] = msg.sender;\n        invited[msg.sender] = newUser;\n\n        users.push(newUser);\n        userCount = userCount + 1;\n        if (userCount == maxUsers) {\n            startDate = block.timestamp;\n            initialiseUsers(); //initialise key variables of the user\n        }\n\n        emit UserAdded(newUser, msg.sender, block.timestamp);\n        return newUser;\n    }\n\n    ///\n    /// @notice Allows a user to claim the pooled funds for him\n    ///\n    function claim() public isMember hasStarted canClaim {\n        // if all conditions pass, then send the user the right ether\n        uint256 rightAmount = (maxUsers - 1) * contributionAmount;\n        payable(msg.sender).transfer(rightAmount);\n        // make it known that this user has claimed their stake\n        User storage currentUser = userSettings[msg.sender];\n        currentUser.claimed = true;\n        currentRound += 1;\n        // after claiming, reset everyone to a state of non payment and initialise next payment date\n        for (uint256 i = 0; i < userCount; i++) {\n            address oneUserAddress = users[i];\n            User storage oneUser = userSettings[oneUserAddress];\n            // if the current user, is the one to be paid in this cycle, then shift his next due date and roles accordingly\n            if (currentRound == i + 1) {\n                oneUser.nextExpectedDepositDate = _offsetCreationDate(\n                    currentRound + 1\n                );\n                oneUser.paidForRound = true;\n                oneUser.roundRole = Role.CLAIMER;\n            } else {\n                oneUser.nextExpectedDepositDate = _offsetCreationDate(\n                    currentRound\n                );\n                oneUser.paidForRound = false;\n                oneUser.roundRole = Role.DEPOSITOR;\n            }\n        }\n        // after the last person has claimed, then we close down the cooperative\n        if (currentRound - 1 == userCount) {\n            status = Status.CLOSED;\n        }\n        emit LogTransaction(msg.sender, TransactionType.CLAIM, block.timestamp);\n    }\n\n    ///\n    /// @notice function to help deposit, refund them if they pay more than the right amount\n    ///\n    function deposit()\n        public\n        payable\n        isMember\n        hasStarted\n        checkAmount\n        makeRefund\n    {\n        require(\n            userSettings[msg.sender].paidForRound != true,\n            \"You have made a contribution for this round already, please wait till the next round\"\n        );\n        User storage oneUser = userSettings[msg.sender];\n        oneUser.paidForRound = true;\n        emit LogTransaction(\n            msg.sender,\n            TransactionType.DEPOSIT,\n            block.timestamp\n        );\n    }\n\n    ///\n    /// @notice return a boolen which indicates if the sending user can claim their pool\n    ///\n    function canClaimPool() public view isMember returns (bool) {\n        User memory oneUser = userSettings[msg.sender];\n        return\n            oneUser.claimed == false &&\n            oneUser.roundRole == Role.CLAIMER &&\n            //&& block.timestamp > oneUser.claimDueDate\n            address(this).balance >= (maxUsers - 1) * contributionAmount;\n    }\n}\n",
  "sourcePath": "/Users/xander/Documents/workstation/consensys/blockchain-developer-bootcamp-final-project/contracts/Cooperative.sol",
  "compiler": {
    "name": "solc",
    "version": "0.8.10+commit.fc410830.Emscripten.clang"
  },
  "schemaVersion": "3.4.3",
  "updatedAt": "2021-11-27T23:05:56.408Z",
  "devdoc": {
    "kind": "dev",
    "methods": {
      "constructor": {
        "details": "Set contract deployer as owner"
      },
      "inviteUser(address)": {
        "details": "it runs several checks to ensure unauthorised parties cannot join the cooperative society - Tested",
        "params": {
          "newUser": "The address of the user which we wish to invite to the cooperation"
        },
        "returns": {
          "_0": "address The addresss of the newly added user"
        }
      }
    },
    "version": 1
  },
  "userdoc": {
    "kind": "user",
    "methods": {
      "canClaimPool()": {
        "notice": "return a boolen which indicates if the sending user can claim their pool"
      },
      "claim()": {
        "notice": "Allows a user to claim the pooled funds for him"
      },
      "deposit()": {
        "notice": "function to help deposit, refund them if they pay more than the right amount"
      },
      "inviteUser(address)": {
        "notice": "Invite a new user to the cooperative pool"
      }
    },
    "version": 1
  }
}